:020000040000fa
:080000000002040000000000f2
:020000040000fa
:04000800c80200002a
:020000040000fa
:04000c00c802000026
:020000040000fa
:04001000c802000022
:020000040000fa
:04001400c80200001e
:020000040000fa
:04001800c80200001a
:020000040000fa
:04001c00c802000016
:020000040000fa
:04002000c802000012
:020000040000fa
:04002400c80200000e
:020000040000fa
:04002800c80200000a
:020000040000fa
:04002c00c802000006
:020000040000fa
:04003000c802000002
:020000040000fa
:04003400c8020000fe
:020000040000fa
:04003800c8020000fa
:020000040000fa
:04003c00c8020000f6
:020000040000fa
:04004000c8020000f2
:020000040000fa
:04004400c8020000ee
:020000040000fa
:04004800c8020000ea
:020000040000fa
:04004c00c8020000e6
:020000040000fa
:04005000c8020000e2
:020000040000fa
:04005400c8020000de
:020000040000fa
:04005800c8020000da
:020000040000fa
:04005c00c8020000d6
:020000040000fa
:04006000c8020000d2
:020000040000fa
:04006400c8020000ce
:020000040000fa
:04006800c8020000ca
:020000040000fa
:04006c00c8020000c6
:020000040000fa
:04007000c8020000c2
:020000040000fa
:04007400c8020000be
:020000040000fa
:04007800c8020000ba
:020000040000fa
:04007c00c8020000b6
:020000040000fa
:04008000c8020000b2
:020000040000fa
:04008400c8020000ae
:020000040000fa
:04008800c8020000aa
:020000040000fa
:04008c00c8020000a6
:020000040000fa
:04009000c8020000a2
:020000040000fa
:04009400c80200009e
:020000040000fa
:04009800c80200009a
:020000040000fa
:04009c00c802000096
:020000040000fa
:0400a000c802000092
:020000040000fa
:0400a400c80200008e
:020000040000fa
:0400a800c80200008a
:020000040000fa
:0400ac00c802000086
:020000040000fa
:0400b000c802000082
:020000040000fa
:0400b400c80200007e
:020000040000fa
:0400b800c80200007a
:020000040000fa
:0400bc00c802000076
:020000040000fa
:0400c000c802000072
:020000040000fa
:0400c400c80200006e
:020000040000fa
:0400c800c80200006a
:020000040000fa
:0400cc00c802000066
:020000040000fa
:0400d000c802000062
:020000040000fa
:0400d400c80200005e
:020000040000fa
:0400d800c80200005a
:020000040000fa
:0400dc00c802000056
:020000040000fa
:0400e000c802000052
:020000040000fa
:0400e400c80200004e
:020000040000fa
:0400e800c80200004a
:020000040000fa
:0400ec00c802000046
:020000040000fa
:0400f000c802000042
:020000040000fa
:0400f400c80200003e
:020000040000fa
:0400f800c80200003a
:020000040000fa
:0400fc00c802000036
:020000040000fa
:04010000c802000031
:020000040000fa
:04010400c80200002d
:020000040000fa
:04010800c802000029
:020000040000fa
:04010c00c802000025
:020000040000fa
:04011000c802000021
:020000040000fa
:04011400c80200001d
:020000040000fa
:04011800c802000019
:020000040000fa
:04011c00c802000015
:020000040000fa
:04012000c802000011
:020000040000fa
:04012400c80200000d
:020000040000fa
:04012800c802000009
:020000040000fa
:04012c00c802000005
:020000040000fa
:04013000c802000001
:020000040000fa
:04013400c8020000fd
:020000040000fa
:04020800c802000028
:020000040000fa
:04020c00c802000024
:020000040000fa
:04021000c802000020
:020000040000fa
:04021400c80200001c
:020000040000fa
:04021800c802000018
:020000040000fa
:04021c00c802000014
:020000040000fa
:04022000c802000010
:020000040000fa
:04022400c80200000c
:020000040000fa
:04022800c802000008
:020000040000fa
:04022c00c802000004
:020000040000fa
:04023000c802000000
:020000040000fa
:04023400c8020000fc
:020000040000fa
:04023800c8020000f8
:020000040000fa
:04023c00c8020000f4
:020000040000fa
:04024000c8020000f0
:020000040000fa
:04024400c8020000ec
:020000040000fa
:04024800c8020000e8
:020000040000fa
:04024c00c8020000e4
:020000040000fa
:04025000c8020000e0
:020000040000fa
:04025400c8020000dc
:020000040000fa
:04025800c8020000d8
:020000040000fa
:04025c00c8020000d4
:020000040000fa
:04026000c8020000d0
:020000040000fa
:04026400c8020000cc
:020000040000fa
:04026800c8020000c8
:020000040000fa
:04026c00c8020000c4
:020000040000fa
:04027000c8020000c0
:020000040000fa
:04027400c8020000bc
:020000040000fa
:04027800c8020000b8
:020000040000fa
:04027c00c8020000b4
:020000040000fa
:04028000c8020000b0
:020000040000fa
:04028400c8020000ac
:020000040000fa
:04028800c8020000a8
:020000040000fa
:04028c00c8020000a4
:020000040000fa
:04029000c8020000a0
:020000040000fa
:04029400c80200009c
:020000040000fa
:04029800c802000098
:020000040000fa
:04029c00c802000094
:020000040000fa
:0402a000c802000090
:020000040000fa
:0402a400c80200008c
:020000040000fa
:0402a800c802000088
:020000040000fa
:0402ac00c802000084
:020000040000fa
:0402b000c802000080
:020000040000fa
:0402b400c80200007c
:020000040000fa
:0402b800c802000078
:020000040000fa
:0402bc00c802000074
:020000040000fa
:0402c000c802000070
:020000040000fa
:0402c400c80200006c
:020000040000fa
:0402c800c802000068
:020000040000fa
:0402cc00c802000064
:020000040000fa
:0402d000c802000060
:020000040000fa
:0402d400c80200005c
:020000040000fa
:0402d800c802000058
:020000040000fa
:0402dc00c802000054
:020000040000fa
:0402e000c802000050
:020000040000fa
:0402e400c80200004c
:020000040000fa
:0402e800c802000048
:020000040000fa
:0402ec00c802000044
:020000040000fa
:0402f000c802000040
:020000040000fa
:0402f400c80200003c
:020000040000fa
:0402f800c802000038
:020000040000fa
:0402fc00c802000034
:020000040000fa
:04030000c80200002f
:020000040000fa
:04030400c80200002b
:020000040000fa
:04030800c802000027
:020000040000fa
:04030c00c802000023
:020000040000fa
:04031000c80200001f
:020000040000fa
:04031400c80200001b
:020000040000fa
:04031800c802000017
:020000040000fa
:04031c00c802000013
:020000040000fa
:04032000c80200000f
:020000040000fa
:04032400c80200000b
:020000040000fa
:04032800c802000007
:020000040000fa
:04032c00c802000003
:020000040000fa
:04033000c8020000ff
:020000040000fa
:04033400c8020000fb
:020000040000fa
:100400004fa220000e7f22000e0188000000000095
:10041000000020000000e000020032000001200087
:1004200020028800140007005b0007000000e000c5
:1004300003003a00c0a4220001002000020037009f
:100440000000200001002000810f70000100320038
:1004500014000700000020000000e000020032004d
:100460000000020000000000ca210200000000009d
:100470000040da000000fe004440a9000000200017
:100480000000e0000300320000002000a00188000e
:100490004440a800000006008a1f78008b1f7800e7
:1004a0000000060091018800800478000000eb0045
:1004b0001a003700e284440032a0b4009905ba0063
:1004c000e284440032a0b4009906ba00e2844400f9
:1004d00032a0b4000006eb00476fde00fd07b2005b
:1004e000636ce10003003a00ebff07000000eb0043
:1004f0000a003700606ce10004003a00005deb0088
:100500008b05e900fdff3e00040037006168e10053
:10051000010032000086eb000b00070019c7ba008b
:100520001905ba000e04e00003003a000a00e000da
:10053000e0ff3a0000000600fe07b2009e018800be
:100540008a047800f5ff3700395dba008b05e900b1
:100550000c003200295dba008b05e900080032006a
:100560000c00e00003003a00e284440032a0b40032
:10057000f5ff370019ddba008b05e900faff3a00f4
:100580008904e800e184440032a0b40000000600c1
:0c0590000040da000000fe000000050042
:020000040000fa
:10059c000000fa00c422ef00c022ef00b0ff2f00d1
:1005ac0050168800b0ff2f0030168800f0df2f00a7
:1005bc00e0168800f0df2f00c016880070ff2f00b7
:1005cc00b016880070ff2f0090168800f0e32f0003
:1005dc0010178800f0e32f00f01688000080fa0056
:1005ec00000006000000fa00f01680000080a10058
:1005fc00f01688000080fa00000006000000fa00e7
:10060c00f01680000080a000f01688000080fa0030
:10061c00000006000000fa00f01680000070a10037
:10062c00f01688000080fa00000006000000fa00b6
:10063c00f01680000070a000f01688000080fa0010
:10064c00000006000000fa00901680000030a100a7
:10065c00901688000080fa00000006000000fa00e6
:10066c00901680000030a000901688000080fa00e0
:10067c00000006000000fa00c01680000090a100e7
:10068c00c01688000080fa00000006000000fa0086
:10069c00c01680000090a000c01688000080fa00f0
:1006ac00000006000200fa00004f78001e00fb005c
:1006bc00201688000080fa00000006000000fa00f6
:1006cc00101780000060a000101788000080fa004e
:1006dc00000006000000fa00101780000060a10066
:1006ec00101788000080fa00000006000000fa00d5
:1006fc00501680000020a000501688000080fa00e0
:10070c00000006000000fa00501680000020a10036
:10071c00501688000080fa00000006000000fa0065
:10072c00e01680000090a100e01688000080fa001e
:10073c00000006000000fa00e01680000090a00007
:10074c00e01688000080fa00000006000000fa00a5
:10075c00b01680000030a100b01688000080fa00ae
:10076c00000006000000fa00b01680000030a00067
:10077c00b01688000080fa00000006000000fa00a5
:10078c00101780000080a000101788000080fa006d
:10079c00000006000000fa00101780000080a10085
:1007ac00101788000080fa00000006000000fa0014
:1007bc00101780000070a000101788000080fa004d
:1007cc00000006000000fa00101780000070a10065
:1007dc00101788000080fa00000006000000fa00e4
:1007ec00b01680000030a000b01688000080fa001f
:1007fc00000006000000fa00b01680000030a100d6
:10080c00b01688000080fa00000006000000fa0014
:10081c00e01680000090a000e01688000080fa002e
:10082c00000006000000fa00e01680000090a10015
:10083c00e01688000080fa00000006000000fa00b4
:10084c00a4ff07000080fa00000006000400fa0074
:10085c00204798000040eb00004f780061ff070034
:10086c000040eb00004f78000c0037002e40900049
:10087c000004e00002003d00c0ff0700010037004b
:10088c00c4ff07008dff07002e4090000040400081
:10089c00204798008fff07001e4fe8001e4078008d
:1008ac00e74f5000f1ff36000080fa000000060010
:1008bc000200fa00004f78004aff070055ff0700be
:1008cc001e4078000004e00002003d00b7ff070066
:1008dc0001003700bbff07009e80fb0000042000d6
:1008ec00008060000000e00002003200a3ff07005f
:1008fc0001003700a7ff070070ff070075ff070016
:10090c009e80fb0000022000008060000000e000e0
:10091c0002003200a5ff070001003700a9ff070005
:10092c001e80fb00700060000000e000020032003e
:10093c0092ff07000100370096ff07005fff0700da
:10094c0064ff07001e80fb00680060000000e000f0
:10095c000200320095ff07000100370099ff0700e5
:10096c001e80fb00640060000000e000020032000a
:10097c0082ff07000100370086ff07004fff0700ca
:10098c0054ff07001e80fb00620060000000e000c6
:10099c000200320085ff07000100370089ff0700c5
:1009ac001e80fb0061006000004078000004e00045
:1009bc000200320071ff07000100370075ff0700cd
:1009cc003eff07006dff070078ff070041ff07009f
:1009dc000080fa00000006000200fa00004f7800c8
:1009ec0000ff07000bff070016ff070021ff0700a1
:1009fc001e4078000004e00002003d0083ff070069
:100a0c000100370087ff07009e80fb0000042000d8
:100a1c00008060000000e000020032006fff070061
:100a2c000100370073ff07009e80fb0000022000ce
:100a3c00008060000000e000020032005bff070055
:100a4c00010037005fff07001e80fb007000600094
:100a5c000000e0000200320048ff070001003700f0
:100a6c004cff070015ff07001aff07001e80fb0054
:100a7c00680060000000e0000200320063ff070025
:100a8c000100370067ff07001e80fb006400600058
:100a9c000000e0000200320050ff070001003700a8
:100aac0054ff07001e80fb00620060000000e000a5
:100abc00020032003dff07000100370041ff070034
:100acc001e80fb0061006000004078000004e00024
:100adc000200320029ff0700010037002dff07003c
:100aec00f6fe070025ff070030ff07003bff07005d
:100afc0046ff0700c1fe0700ccfe0700d7fe07002b
:100b0c00e2fe0700f3fe07000080fa00000006007a
:100b1c000400fa000040eb00004f78000040eb00ae
:100b2c00104798000040eb0020479800bffe0700dc
:100b3c000040eb00004f7800110037001e40900081
:100b4c00004040001047980001178000000820006a
:100b5c00008060004700de0020479800d7fe0700a9
:100b6c002e409000e14f500003003a001e409000d0
:100b7c000004a00010479800d6fe07001e4fe800a6
:100b8c001e407800e74f5000ecff36001e409000ee
:100b9c000080fa00000006000400fa000040eb00a0
:100bac00004f78000040eb00104798000040eb002d
:100bbc00204798000040eb00304798008ffe07005c
:100bcc009afe07000040eb00004f78001f00370032
:100bdc001e40900000404000104798000117800014
:100bec0000082000008060004700de0020479800cd
:100bfc000117800000102000008060004800de001b
:100c0c0030479800adfe07002e409000e14f500099
:100c1c0003003a001e4090000004a000104798000a
:100c2c001e40900000404000104798003e4090004d
:100c3c00e14f500003003a001e4090000004a00059
:100c4c0010479800a3fe07001e4fe8001e407800d6
:100c5c00e34f5000deff36001e4090000080fa008b
:100c6c00000006000600fa000040eb00004f780080
:100c7c000040eb00104798000040eb002047980024
:100c8c000040eb00304798000040eb0040479800d4
:100c9c005afe070065fe070070fe07007bfe07008a
:100cac00d116800000202000008060004900de008a
:100cbc0010479800a0168000680060004300de001a
:100ccc002047980001178000000820000080600079
:100cdc004700de003047980001178000001020000c
:100cec00008060004800de004047980073fe07005b
:100cfc001e409000e14f500002003a0010c0b300bb
:100d0c00004f78001e40780000404000004f7800f3
:100d1c002e409000e14f500001003a001e04a0004c
:100d2c001e40780000404000004f78003e4090008c
:100d3c00e14f500001003a001e04a0001e40780054
:100d4c0000404000004f78004e409000e14f5000b2
:100d5c0001003a001e04a0005efe07001e40780051
:100d6c000080fa00000006000200fa000040eb00d0
:100d7c00004f7800bbff0700004f78009e407800c2
:100d8c00400020000008dd00004f7800b5ff070090
:100d9c00104798001e4090001e4f70001e407800b7
:100dac000080fa00000006000200fa000040eb0090
:100dbc00004f780053fe070050c0b30006ff070039
:100dcc0000c0eb0004ff0700e7ff0700004f7800ae
:100ddc0046fe07001e4078000080fa000000060066
:100dec000200fa000040eb00004f780045fe0700bf
:100dfc0050c0b30095fe070045ff0700004f780078
:100e0c003afe07001e4078000080fa000000060041
:100e1c000200fa000040eb00004f780039fe07009a
:100e2c0050c3b30089fe070039ff0700004f78005c
:100e3c002efe07001e4078000080fa00000006001d
:100e4c000200fa000040eb00004f78002dfe070076
:100e5c0050c3b300e0fe070000c0eb00defe07004d
:100e6c00c1ff0700004f780020fe07001e407800ed
:100e7c000080fa00000006000000fa0021fe0700c6
:100e8c0060c0b300d4fe070018fe07000080fa0013
:100e9c00000006000000fa001afe070060c0b30054
:100eac006afe070011fe07000080fa000000060031
:100ebc000000fa0013fe070040c0b300c6fe070096
:100ecc000afe07000080fa00000006000000fa008d
:100edc000cfe070040c0b3005cfe070003fe0700d9
:100eec000080fa00000006000000fa0005fe070072
:100efc00f0cab300b8fe070000c0eb00b6fe070056
:100f0c0099ff070000e8b70097ff070001e8b7005a
:100f1c0095ff070002e8b700f4fd07000080fa0017
:100f2c00000006000000fa00f6fd0700f0c9b3004f
:100f3c0046fe0700f6fe070000e8b700f4fe0700c7
:100f4c0001e8b700f2fe070002e8b700e7fd070072
:100f5c000080fa00000006000600fa001007980056
:100f6c00210798000040eb00004f7800e5fd0700da
:100f7c0030c0b30035fe07001e019000ae0190009a
:100f8c00f0ff2f00f10f200002027800030178001f
:100f9c00800178000100780003026200000061000b
:100fac008000eb00c000dd00000020000001be004e
:100fbc006120b80000017100818171004018de00d1
:100fcc00010020000040780020fe07001e01900068
:100fdc00ae019000f0ff2f0001002000020278000b
:100fec0003017800800178000100780003026200a0
:100ffc00000061008000eb00c000dd00000020005c
:10100c000001be006120b8000001710081817100f7
:10101c00481add004810de0000007200c818de001f
:10102c000040780009fe07001e0090000040780088
:10103c0006fe0700b6fe0700004f7800abfd070068
:10104c001e4078000080fa00000006000c00fa0038
:10105c002007980031079800420798005307980022
:10106c006000b800008fbe00a6fd070030c0b300c2
:10107c00f6fd07002e019000be019000f0ff2f003e
:10108c00f10f200002027800030178008001780043
:10109c000100780003026200000061008000eb0098
:1010ac00c000dd00000020000001be006120b8007f
:1010bc0000017100818171004018de0001002000e8
:1010cc0000407800e1fd07002e019000be01900069
:1010dc00f0ff2f00010020000202780003017800cd
:1010ec0080017800010078000302620000006100ba
:1010fc008000eb00c000dd00000020000001be00fd
:10110c006120b8000001710081817100481add0076
:10111c004810de0000007200c818de0000407800a5
:10112c00cafd07002e00900000407800c7fd0700a4
:10113c004e019000de019000001020000100200004
:10114c00800f5100818f59000400360000102000e0
:10115c000100200040079800510798006000b8007b
:10116c00008fbe000b00370069fe07008080fb007b
:10117c001e0078000001400080802000000041002b
:10118c000108780012002000030020001e0f41000f
:10119c005e9749004e009000de0090001e01be00dc
:1011ac00800f5100818f5900efff39004ffd070070
:1011bc000080fa00000006000600fa0010079800f4
:1011cc00210798000040eb00004f78004dfd070010
:1011dc00b0c0b3009dfd07001e019000ae01900051
:1011ec00f0ff2f00f10f20000202780003017800bd
:1011fc0080017800010078000302620000006100a9
:10120c008000eb00c000dd00000020000001be00eb
:10121c006120b80000017100818171004018de006e
:10122c00010020000040780088fd07001e0190009e
:10123c00ae019000f0ff2f000100200002027800a8
:10124c00030178008001780001007800030262003d
:10125c00000061008000eb00c000dd0000002000f9
:10126c000001be006120b800000171008181710095
:10127c00481add004810de0000007200c818de00bd
:10128c000040780071fd07001e00900000407800bf
:10129c006efd070000c0eb006cfd07001cfe070094
:1012ac00004f780011fd07001e4078000080fa0006
:1012bc00000006000600fa001007980021079800ad
:1012cc000040eb00004f78000efd0700b0c0b300eb
:1012dc00c1fd07001e019000ae019000f0ff2f0031
:1012ec00f10f2000020278000301780080017800e1
:1012fc000100780003026200000061008000eb0036
:10130c00c000dd00000020000001be006120b8001c
:10131c0000017100818171004018de000100200085
:10132c0000407800acfd07001e019000ae0190005b
:10133c00f0ff2f000100200002027800030178006a
:10134c008001780001007800030262000000610057
:10135c008000eb00c000dd00000020000001be009a
:10136c006120b8000001710081817100481add0014
:10137c004810de0000007200c818de000040780043
:10138c0095fd07001e0090000040780092fd0700bc
:10139c00f0cab30090fd070000c0eb008efd070003
:1013ac0000c0eb008cfd07006ffe0700004f7800bb
:1013bc00cefc07001e4078000080fa0000000600fa
:1013cc000600fa0010079800210798000040eb0077
:1013dc00004f7800cbfc0700b0c0b3007efd0700c7
:1013ec001e019000ae019000f0ff2f00f10f2000c5
:1013fc000202780003017800800178000100780077
:10140c0003026200000061008000eb00c000dd0000
:10141c00000020000001be006120b8000001710036
:10142c00818171004018de0001002000004078002e
:10143c0069fd07001e019000ae019000f0ff2f0027
:10144c00010020000202780003017800800178007e
:10145c000100780003026200000061008000eb00d4
:10146c00c000dd00000020000001be006120b800bb
:10147c000001710081817100481add004810de0006
:10148c0000007200c818de000040780052fd070012
:10149c001e009000004078004ffd0700f0cab3001a
:1014ac004dfd070000c0eb004bfd070000c0eb003a
:1014bc0049fd07002cfe0700004f78008bfc07004d
:1014cc001e4078000080fa00000006000600fa00ba
:1014dc0010079800210798000040eb00004f78009f
:1014ec0088fc0700b0c0b3003bfd07001e01900054
:1014fc00ae019000f0ff2f00f10f200002027800e7
:10150c00030178008001780001007800030262007a
:10151c00000061008000eb00c000dd000000200036
:10152c000001be006120b8000001710081817100d2
:10153c004018de00010020000040780026fd070066
:10154c001e019000ae019000f0ff2f000100200062
:10155c000202780003017800800178000100780015
:10156c0003026200000061008000eb00c000dd009f
:10157c00000020000001be006120b80000017100d5
:10158c0081817100481add004810de0000007200f5
:10159c00c818de00004078000ffd07001e00900008
:1015ac00004078000cfd0700f0ccb3000afd0700ea
:1015bc0000c0eb0008fd070000c0eb0006fd0700b3
:1015cc00e9fd0700004f780048fc07001e4078003a
:1015dc000080fa00000006000c00fa0020079800ba
:1015ec003107980042079800530798006000b80034
:1015fc00008fbe0043fc0700b0c0b30093fc070093
:10160c002e019000be019000f0ff2f00f10f200082
:10161c000202780003017800800178000100780054
:10162c0003026200000061008000eb00c000dd00de
:10163c00000020000001be006120b8000001710014
:10164c00818171004018de0001002000004078000c
:10165c007efc07002e019000be019000f0ff2f00d1
:10166c00010020000202780003017800800178005c
:10167c000100780003026200000061008000eb00b2
:10168c00c000dd00000020000001be006120b80099
:10169c000001710081817100481add004810de00e4
:1016ac0000007200c818de000040780067fc0700dc
:1016bc002e0090000040780064fc070000c0eb0096
:1016cc0062fc07004e019000de019000001020002b
:1016dc0001002000800f5100818f5900040036005a
:1016ec0000102000010020004007980051079800ce
:1016fc006000b800008fbe000b00370004fd07002f
:10170c008080fb001e0078000001400080802000db
:10171c0000004100010878001200200003002000a6
:10172c001e0f41005e9749004e009000de009000b5
:10173c001e01be00800f5100818f5900efff390050
:10174c00eafb07000080fa00000006000c00fa001b
:10175c00200798003107980042079800530798001b
:10176c006000b800008fbe00e6fb0700b0c0b300fd
:10177c0099fc07002e019000be019000f0ff2f0095
:10178c00f10f20000202780003017800800178003c
:10179c000100780003026200000061008000eb0091
:1017ac00c000dd00000020000001be006120b80078
:1017bc0000017100818171004018de0001002000e1
:1017cc000040780084fc07002e019000be019000c0
:1017dc00f0ff2f00010020000202780003017800c6
:1017ec0080017800010078000302620000006100b3
:1017fc008000eb00c000dd00000020000001be00f6
:10180c006120b8000001710081817100481add006f
:10181c004810de0000007200c818de00004078009e
:10182c006dfc07002e009000004078006afc070059
:10183c00f0cab30068fc070000c0eb0066fc0700b0
:10184c0000c0eb0064fc07004e019000de0190002c
:10185c000010200001002000800f5100818f5900e2
:10186c000400360000102000010020004007980002
:10187c00510798006000b800008fbe000b003700c5
:10188c0039fd07008080fb001e007800000140003d
:10189c008080200000004100010878001200200028
:1018ac00030020001e0f41005e9749004e0090007f
:1018bc00de0090001e01be00800f5100818f590088
:1018cc00efff390089fb07000080fa0000000600da
:1018dc000c00fa0020079800310798004207980086
:1018ec00530798006000b800008fbe0085fb07000e
:1018fc002e019000be019000f0ff2f00f10f200090
:10190c000202780003017800800178000100780061
:10191c0003026200000061008000eb00c000dd00eb
:10192c00000020000001be006120b8000001710021
:10193c00818171004018de00010020000040780019
:10194c0025fc07002e019000be019000f0ff2f0037
:10195c000100200002027800030178008001780069
:10196c000100780003026200000061008000eb00bf
:10197c00c000dd00000020000001be006120b800a6
:10198c000001710081817100481add004810de00f1
:10199c0000007200c818de00004078000efc070042
:1019ac002e009000004078000bfc0700f0cab3003a
:1019bc0009fc070000c0eb0007fc070000c0eb00af
:1019cc0005fc07004e019000de0190000010200085
:1019dc0001002000800f5100818f59000400360057
:1019ec0000102000010020004007980051079800cb
:1019fc006000b800008fbe000b003700dafc070057
:101a0c008080fb001e0078000001400080802000d8
:101a1c0000004100010878001200200003002000a3
:101a2c001e0f41005e9749004e009000de009000b2
:101a3c001e01be00800f5100818f5900efff39004d
:101a4c002afb07000080fa00000006000c00fa00d8
:101a5c002007980031079800420798005307980018
:101a6c006000b800008fbe0026fb07002e0190001e
:101a7c00be019000f0ff2f00f10f20000202780051
:101a8c0003017800800178000100780003026200f5
:101a9c00000061008000eb00c000dd0000002000b1
:101aac000001be006120b80000017100818171004d
:101abc004018de000100200000407800c6fb070043
:101acc002e019000be019000f0ff2f0001002000bd
:101adc000202780003017800800178000100780090
:101aec0003026200000061008000eb00c000dd001a
:101afc00000020000001be006120b8000001710050
:101b0c0081817100481add004810de00000072006f
:101b1c00c818de0000407800affb07002e009000d4
:101b2c0000407800acfb0700f0ccb300aafb070028
:101b3c0000c0eb00a8fb070000c0eb00a6fb0700f1
:101b4c004e019000de0190000010200001002000ea
:101b5c00800f5100818f59000400360000102000c6
:101b6c000100200040079800510798006000b80061
:101b7c00008fbe000b0037007bfc07008080fb0051
:101b8c001e00780000014000808020000000410011
:101b9c000108780012002000030020001e0f4100f5
:101bac005e9749004e009000de0090001e01be00c2
:101bbc00800f5100818f5900efff3900cbfa0700dd
:101bcc000080fa00000006000600fa0010079800da
:101bdc00210798000040eb00004f7800c9fa07007d
:101bec00b0c6b30019fb07001e019000ae019000b7
:101bfc00f0ff2f00f10f20000202780003017800a3
:101c0c00800178000100780003026200000061008e
:101c1c008000eb00c000dd00000020000001be00d1
:101c2c006120b80000017100818171004018de0054
:101c3c00010020000040780004fb07001e0190000a
:101c4c00ae019000f0ff2f0001002000020278008e
:101c5c000301780080017800010078000302620023
:101c6c00000061008000eb00c000dd0000002000df
:101c7c000001be006120b80000017100818171007b
:101c8c00481add004810de0000007200c818de00a3
:101c9c0000407800edfa07001e009000004078002c
:101cac00eafa070000c0eb00e8fa07002efc070078
:101cbc00004f78008dfa07001e4078000080fa0073
:101ccc00000006000c00fa0020079800310798006d
:101cdc0042079800530798006000b800008fbe00c0
:101cec0088fa0700b0c6b300d8fa07002e0190009e
:101cfc00be019000f0ff2f00f10f200002027800cf
:101d0c000301780080017800010078000302620072
:101d1c00000061008000eb00c000dd00000020002e
:101d2c000001be006120b8000001710081817100ca
:101d3c004018de000100200000407800c3fa0700c4
:101d4c002e019000be019000f0ff2f00010020003a
:101d5c00020278000301780080017800010078000d
:101d6c0003026200000061008000eb00c000dd0097
:101d7c00000020000001be006120b80000017100cd
:101d8c0081817100481add004810de0000007200ed
:101d9c00c818de0000407800acfa07002e00900056
:101dac0000407800a9fa070000c0eb00a7fa070072
:101dbc004e019000de019000001020000100200078
:101dcc00800f5100818f5900040036000010200054
:101ddc000100200040079800510798006000b800ef
:101dec00008fbe000b003700dffb07008080fb007c
:101dfc001e0078000001400080802000000041009f
:101e0c000108780012002000030020001e0f410082
:101e1c005e9749004e009000de0090001e01be004f
:101e2c00800f5100818f5900efff39002ffa070006
:101e3c000080fa00000006000600fa001007980067
:101e4c00210798000040eb00004f78002dfa0700a6
:101e5c00b0ceb3007dfa07001e019000ae019000d9
:101e6c00f0ff2f00f10f2000020278000301780030
:101e7c00800178000100780003026200000061001c
:101e8c008000eb00c000dd00000020000001be005f
:101e9c006120b80000017100818171004018de00e2
:101eac000100200000407800cbfa07001e019000d2
:101ebc00ae019000f0ff2f0001002000020278001c
:101ecc0003017800800178000100780003026200b1
:101edc00000061008000eb00c000dd00000020006d
:101eec000001be006120b800000171008181710009
:101efc00481add004810de0000007200c818de0031
:101f0c0000407800b4fa07001e00900000407800f2
:101f1c00b1fa0700f0cab300affa070000c0eb003b
:101f2c00adfa070000c0eb00abfa07008efb070010
:101f3c00004f7800edf907001e4078000080fa0091
:101f4c00000006000600fa00100798002107980010
:101f5c000040eb00004f7800eaf90700b0ceb30068
:101f6c003afa07001e019000ae019000f0ff2f001e
:101f7c00f10f200002027800030178008001780044
:101f8c000100780003026200000061008000eb0099
:101f9c00c000dd00000020000001be006120b80080
:101fac0000017100818171004018de0001002000e9
:101fbc000040780088fa07001e019000ae019000e6
:101fcc00f0ff2f00010020000202780003017800ce
:101fdc0080017800010078000302620000006100bb
:101fec008000eb00c000dd00000020000001be00fe
:101ffc006120b8000001710081817100481add0078
:10200c004810de0000007200c818de0000407800a6
:10201c0071fa07001e009000004078006efa07006d
:10202c00f0cab3006cfa070000c0eb006afa0700b4
:10203c0000c0eb0068fa07004bfb0700004f78006c
:10204c00aaf907001e4078000080fa000000060084
:10205c000600fa0010079800210798000040eb00da
:10206c00004f7800a7f90700b0ceb300f7f90700ce
:10207c001e019000ae019000f0ff2f00f10f200028
:10208c0002027800030178008001780001007800da
:10209c0003026200000061008000eb00c000dd0064
:1020ac00000020000001be006120b800000171009a
:1020bc00818171004018de00010020000040780092
:1020cc0045fa07001e019000ae019000f0ff2f00b2
:1020dc0001002000020278000301780080017800e2
:1020ec000100780003026200000061008000eb0038
:1020fc00c000dd00000020000001be006120b8001f
:10210c000001710081817100481add004810de0069
:10211c0000007200c818de00004078002efa07009c
:10212c001e009000004078002bfa070000c0eb0066
:10213c0029fa070000c0eb0027fa070000c0eb00eb
:10214c0025fa070008fb0700004f780067f9070025
:10215c001e4078000080fa00000006000c00fa0017
:10216c002007980031079800420798005307980001
:10217c006000b800008fbe0062f90700b0ceb3005b
:10218c00b2f907002e019000be019000f0ff2f0065
:10219c00f10f200002027800030178008001780022
:1021ac000100780003026200000061008000eb0077
:1021bc00c000dd00000020000001be006120b8005e
:1021cc0000017100818171004018de0001002000c7
:1021dc000040780000fa07002e019000be0190002c
:1021ec00f0ff2f00010020000202780003017800ac
:1021fc008001780001007800030262000000610099
:10220c008000eb00c000dd00000020000001be00db
:10221c006120b8000001710081817100481add0055
:10222c004810de0000007200c818de000040780084
:10223c00e9f907002e00900000407800e6f907004d
:10224c00f0cab300e4f9070000c0eb00e2f90700a4
:10225c0000c0eb00e0f907004e019000de01900099
:10226c000010200001002000800f5100818f5900c8
:10227c0004003600001020000100200040079800e8
:10228c00510798006000b800008fbe000b003700ab
:10229c00b5fa07008080fb001e00780000014000aa
:1022ac00808020000000410001087800120020000e
:1022bc00030020001e0f41005e9749004e00900065
:1022cc00de0090001e01be00800f5100818f59006e
:1022dc00efff390005f907000080fa000000060046
:1022ec000c00fa002007980031079800420798006c
:1022fc00530798006000b800008fbe0001f907007a
:10230c002e019000be019000f0ff2f00f10f200075
:10231c000202780003017800800178000100780047
:10232c0003026200000061008000eb00c000dd00d1
:10233c00000020000001be006120b8000001710007
:10234c00818171004018de000100200000407800ff
:10235c00a1f907002e019000be019000f0ff2f00a4
:10236c00010020000202780003017800800178004f
:10237c000100780003026200000061008000eb00a5
:10238c00c000dd00000020000001be006120b8008c
:10239c000001710081817100481add004810de00d7
:1023ac0000007200c818de00004078008af90700af
:1023bc002e0090000040780087f90700f0cab300a7
:1023cc0085f9070000c0eb0083f9070000c0eb00a3
:1023dc0081f907004e019000de01900000102000f2
:1023ec0001002000800f5100818f5900040036003d
:1023fc0000102000010020004007980051079800b1
:10240c006000b800008fbe000b00370056fa0700c2
:10241c008080fb001e0078000001400080802000be
:10242c000000410001087800120020000300200089
:10243c001e0f41005e9749004e009000de00900098
:10244c001e01be00800f5100818f5900efff390033
:10245c00a6f807000080fa00000006000c00fa0045
:10246c0020079800310798004207980053079800fe
:10247c006000b800008fbe00a2f807002e0190008b
:10248c00be019000f0ff2f00f10f20000202780037
:10249c0003017800800178000100780003026200db
:1024ac00000061008000eb00c000dd000000200097
:1024bc000001be006120b800000171008181710033
:1024cc004018de00010020000040780042f90700af
:1024dc002e019000be019000f0ff2f0001002000a3
:1024ec000202780003017800800178000100780076
:1024fc0003026200000061008000eb00c000dd0000
:10250c00000020000001be006120b8000001710035
:10251c0081817100481add004810de000000720055
:10252c00c818de00004078002bf907002e00900040
:10253c000040780028f9070000c0eb0026f90700de
:10254c0000c0eb0024f9070000c0eb0022f90700e3
:10255c004e019000de0190000010200001002000d0
:10256c00800f5100818f59000400360000102000ac
:10257c000100200040079800510798006000b80047
:10258c00008fbe000b003700f7f907008080fb00be
:10259c001e007800000140008080200000004100f7
:1025ac000108780012002000030020001e0f4100db
:1025bc005e9749004e009000de0090001e01be00a8
:1025cc00800f5100818f5900efff390047f8070049
:1025dc000080fa00000006000600fa0010079800c0
:1025ec00210798000040eb00004f780045f80700e9
:1025fc00b0c3b30095f807001e019000ae01900027
:10260c00f0ff2f00f10f2000020278000301780088
:10261c008001780001007800030262000000610074
:10262c008000eb00c000dd00000020000001be00b7
:10263c006120b80000017100818171004018de003a
:10264c00010020000040780080f807001e01900077
:10265c00ae019000f0ff2f00010020000202780074
:10266c000301780080017800010078000302620009
:10267c00000061008000eb00c000dd0000002000c5
:10268c000001be006120b800000171008181710061
:10269c00481add004810de0000007200c818de0089
:1026ac000040780069f807001e0090000040780098
:1026bc0066f8070000c0eb0064f8070036f9070065
:1026cc00004f780009f807001e4078000080fa00df
:1026dc00000006000c00fa00200798003107980053
:1026ec0042079800530798006000b800008fbe00a6
:1026fc0004f80700b0c3b30054f807002e01900093
:10270c00be019000f0ff2f00f10f200002027800b4
:10271c000301780080017800010078000302620058
:10272c00000061008000eb00c000dd000000200014
:10273c000001be006120b8000001710081817100b0
:10274c004018de0001002000004078003ff8070030
:10275c002e019000be019000f0ff2f000100200020
:10276c0002027800030178008001780001007800f3
:10277c0003026200000061008000eb00c000dd007d
:10278c00000020000001be006120b80000017100b3
:10279c0081817100481add004810de0000007200d3
:1027ac00c818de000040780028f807002e009000c2
:1027bc000040780025f8070000c0eb0023f8070064
:1027cc004e019000de01900000102000010020005e
:1027dc00800f5100818f590004003600001020003a
:1027ec000100200040079800510798006000b800d5
:1027fc00008fbe000b003700e7f807008080fb005d
:10280c001e00780000014000808020000000410084
:10281c000108780012002000030020001e0f410068
:10282c005e9749004e009000de0090001e01be0035
:10283c00800f5100818f5900efff3900abf7070073
:10284c000080fa00000006000600fa00100798004d
:10285c00210798000040eb00004f7800a9f7070013
:10286c00b0cbb300f9f707001e019000ae01900049
:10287c00f0ff2f00f10f2000020278000301780016
:10288c008001780001007800030262000000610002
:10289c008000eb00c000dd00000020000001be0045
:1028ac006120b80000017100818171004018de00c8
:1028bc000100200000407800fdf707001e01900089
:1028cc00ae019000f0ff2f00010020000202780002
:1028dc000301780080017800010078000302620097
:1028ec00000061008000eb00c000dd000000200053
:1028fc000001be006120b8000001710081817100ef
:10290c00481add004810de0000007200c818de0016
:10291c0000407800e6f707001e00900000407800a9
:10292c00e3f70700f0cab300e1f707009af80700d5
:10293c00004f78006df707001e4078000080fa0009
:10294c00000006000600fa00100798002107980006
:10295c000040eb00004f78006af70700b0cbb300e3
:10296c00baf707001e019000ae019000f0ff2f0097
:10297c00f10f20000202780003017800800178003a
:10298c000100780003026200000061008000eb008f
:10299c00c000dd00000020000001be006120b80076
:1029ac0000017100818171004018de0001002000df
:1029bc0000407800bef707001e019000ae019000a9
:1029cc00f0ff2f00010020000202780003017800c4
:1029dc0080017800010078000302620000006100b1
:1029ec008000eb00c000dd00000020000001be00f4
:1029fc006120b8000001710081817100481add006e
:102a0c004810de0000007200c818de00004078009c
:102a1c00a7f707001e00900000407800a4f70700fd
:102a2c00f0cab300a2f707005bf80700004f78006c
:102a3c002ef707001e4078000080fa000000060008
:102a4c000600fa0010079800210798000040eb00e0
:102a5c00004f78002bf70700b0cbb3007bf70700d3
:102a6c001e019000ae019000f0ff2f00f10f20002e
:102a7c0002027800030178008001780001007800e0
:102a8c0003026200000061008000eb00c000dd006a
:102a9c00000020000001be006120b80000017100a0
:102aac00818171004018de00010020000040780098
:102abc007ff707001e019000ae019000f0ff2f0081
:102acc0001002000020278000301780080017800e8
:102adc000100780003026200000061008000eb003e
:102aec00c000dd00000020000001be006120b80025
:102afc000001710081817100481add004810de0070
:102b0c0000007200c818de000040780068f707006b
:102b1c001e0090000040780065f7070000c0eb0035
:102b2c0063f707001cf80700004f7800eff607006a
:102b3c001e4078000080fa00000006000c00fa002d
:102b4c002007980031079800420798005307980017
:102b5c006000b800008fbe00eaf60700b0cbb300ef
:102b6c003af707002e019000be019000f0ff2f00f5
:102b7c00f10f200002027800030178008001780038
:102b8c000100780003026200000061008000eb008d
:102b9c00c000dd00000020000001be006120b80074
:102bac0000017100818171004018de0001002000dd
:102bbc00004078003ef707002e019000be01900007
:102bcc00f0ff2f00010020000202780003017800c2
:102bdc0080017800010078000302620000006100af
:102bec008000eb00c000dd00000020000001be00f2
:102bfc006120b8000001710081817100481add006c
:102c0c004810de0000007200c818de00004078009a
:102c1c0027f707002e0090000040780024f70700eb
:102c2c00f0cab30022f707004e019000de019000bd
:102c3c000010200001002000800f5100818f5900ee
:102c4c00040036000010200001002000400798000e
:102c5c00510798006000b800008fbe000b003700d1
:102c6c00cdf707008080fb001e00780000014000bb
:102c7c008080200000004100010878001200200034
:102c8c00030020001e0f41005e9749004e0090008b
:102c9c00de0090001e01be00800f5100818f590094
:102cac00efff390091f607000080fa0000000600e3
:102cbc000c00fa0020079800310798004207980092
:102ccc00530798006000b800008fbe008df6070017
:102cdc002e019000be019000f0ff2f00f10f20009c
:102cec00020278000301780080017800010078006e
:102cfc0003026200000061008000eb00c000dd00f8
:102d0c00000020000001be006120b800000171002d
:102d1c00818171004018de00010020000040780025
:102d2c00e3f607002e019000be019000f0ff2f008b
:102d3c000100200002027800030178008001780075
:102d4c000100780003026200000061008000eb00cb
:102d5c00c000dd00000020000001be006120b800b2
:102d6c000001710081817100481add004810de00fd
:102d7c0000007200c818de0000407800ccf6070096
:102d8c002e00900000407800c9f60700f0cab3008e
:102d9c00c7f607004e019000de01900000102000e5
:102dac0001002000800f5100818f59000400360073
:102dbc0000102000010020004007980051079800e7
:102dcc006000b800008fbe000b00370072f70700e0
:102ddc008080fb001e0078000001400080802000f5
:102dec0000004100010878001200200003002000c0
:102dfc001e0f41005e9749004e009000de009000cf
:102e0c001e01be00800f5100818f5900efff390069
:102e1c0036f607000080fa00000006000c00fa00ed
:102e2c002007980031079800420798005307980034
:102e3c006000b800008fbe0032f607002e01900033
:102e4c00be019000f0ff2f00f10f2000020278006d
:102e5c000301780080017800010078000302620011
:102e6c00000061008000eb00c000dd0000002000cd
:102e7c000001be006120b800000171008181710069
:102e8c004018de00010020000040780088f60700a2
:102e9c002e019000be019000f0ff2f0001002000d9
:102eac0002027800030178008001780001007800ac
:102ebc0003026200000061008000eb00c000dd0036
:102ecc00000020000001be006120b800000171006c
:102edc0081817100481add004810de00000072008c
:102eec00c818de000040780071f607002e00900034
:102efc00004078006ef6070000c0eb006cf607008f
:102f0c004e019000de019000001020000100200016
:102f1c00800f5100818f59000400360000102000f2
:102f2c000100200040079800510798006000b8008d
:102f3c00008fbe000b00370017f707008080fb00e6
:102f4c001e0078000001400080802000000041003d
:102f5c000108780012002000030020001e0f410021
:102f6c005e9749004e009000de0090001e01be00ee
:102f7c00800f5100818f5900efff3900dbf50700fe
:102f8c000080fa00000006000200fa00004f7800f2
:102f9c00dcf5070000ccb3008ff607001e4078006c
:102fac008df60700d1f507000080fa00000006003e
:102fbc000200fa00004f7800d2f5070000ccb300f5
:102fcc0022f607001e40780020f60700c7f5070020
:102fdc000080fa00000006000800fa0010079800b4
:102fec0021079800624798000000eb00000f780062
:102ffc00c4f50700c0c0b30077f607001e019000af
:10300c00ae019000f0ff2f00f10f200002027800bb
:10301c00030178008001780001007800030262004f
:10302c00000061008000eb00c000dd00000020000b
:10303c000001be006120b8000001710081817100a7
:10304c004018de00010020000040780062f6070006
:10305c001e019000ae019000f0ff2f000100200037
:10306c0002027800030178008001780001007800ea
:10307c0003026200000061008000eb00c000dd0074
:10308c00000020000001be006120b80000017100aa
:10309c0081817100481add004810de0000007200ca
:1030ac00c818de00004078004bf607001e009000a8
:1030bc000040780048f607001e00900000407800a1
:1030cc0045f607001e0090000040780042f607000d
:1030dc001e009000004078003ff607000000eb0057
:1030ec00000f7800080037001ff707008080fb00f6
:1030fc001e0078000001400080802000000041008c
:10310c00010878001e0fe8006e4090000080fb0064
:10311c000000e9009e0f5000f3ff310073f507002b
:10312c000080fa00000006000800fa001007980062
:10313c0021079800624798000000eb00000f780010
:10314c0070f50700c0ceb300c0f507001e0190005b
:10315c00ae019000f0ff2f00f10f2000020278006a
:10316c0003017800800178000100780003026200fe
:10317c00000061008000eb00c000dd0000002000ba
:10318c000001be006120b800000171008181710056
:10319c004018de0001002000004078000ef6070009
:1031ac001e019000ae019000f0ff2f0001002000e6
:1031bc000202780003017800800178000100780099
:1031cc0003026200000061008000eb00c000dd0023
:1031dc00000020000001be006120b8000001710059
:1031ec0081817100481add004810de000000720079
:1031fc00c818de0000407800f7f507001e009000ac
:10320c0000407800f4f507001e00900000407800a4
:10321c00f1f507001e00900000407800eef5070065
:10322c001e00900000407800ebf507000000eb005a
:10323c00000f780008003700cbf607008080fb00f9
:10324c001e0078000001400080802000000041003a
:10325c00010878001e0fe8006e4090000080fb0013
:10326c009e0f5000f4ff3e0020f507000080fa008e
:10327c00000006000600fa001007980021079800cd
:10328c000000eb00000f78001ef5070020c0b30013
:10329c00d1f507001e019000ae019000f0ff2f0049
:1032ac00f10f200002027800030178008001780001
:1032bc000100780003026200000061008000eb0056
:1032cc00c000dd00000020000001be006120b8003d
:1032dc0000017100818171004018de0001002000a6
:1032ec0000407800bcf507001e019000ae01900074
:1032fc00f0ff2f000100200002027800030178008b
:10330c008001780001007800030262000000610077
:10331c008000eb00c000dd00000020000001be00ba
:10332c006120b8000001710081817100481add0034
:10333c004810de0000007200c818de000040780063
:10334c00a5f507001e00900000407800a2f50700cc
:10335c000000eb00000f7800080037001e0078001a
:10336c008000400080802000008040001000780029
:10337c000040780098f507001e0fe800f00f2000c1
:10338c009e007800808f5000f4ff3600d7f40700c1
:10339c000080fa00000006000600fa0010079800f2
:1033ac00210798000000eb00000f7800d5f407000f
:1033bc0020c0b30025f507001e019000ae0190005f
:1033cc00f0ff2f00f10f20000202780003017800bb
:1033dc0080017800010078000302620000006100a7
:1033ec008000eb00c000dd00000020000001be00ea
:1033fc006120b80000017100818171004018de006d
:10340c00010020000040780010f507001e0190001c
:10341c00ae019000f0ff2f000100200002027800a6
:10342c00030178008001780001007800030262003b
:10343c00000061008000eb00c000dd0000002000f7
:10344c000001be006120b800000171008181710093
:10345c00481add004810de0000007200c818de00bb
:10346c0000407800f9f407001e009000004078003e
:10347c00f6f407000000eb00000f7800080037009e
:10348c001e007800800040008080200000804000fa
:10349c001000780000407800ecf407001e0fe800e4
:1034ac00f00f20009e007800808f5000f4ff360053
:1034bc008ef407000080fa00000006000600fa00f7
:1034cc0010079800210798000000eb00000f78000f
:1034dc008cf4070020c3b300dcf407001e0190003d
:1034ec00ae019000f0ff2f00f10f200002027800d7
:1034fc00030178008001780001007800030262006b
:10350c00000061008000eb00c000dd000000200026
:10351c000001be006120b8000001710081817100c2
:10352c004018de0001002000004078002af507005a
:10353c001e019000ae019000f0ff2f000100200052
:10354c000202780003017800800178000100780005
:10355c0003026200000061008000eb00c000dd008f
:10356c00000020000001be006120b80000017100c5
:10357c0081817100481add004810de0000007200e5
:10358c00c818de000040780013f507001e009000fc
:10359c000040780010f507000000eb00000f7800e9
:1035ac00080037001e00780080004000808020005a
:1035bc0000804000100078000040780006f50700fd
:1035cc001e0fe800f00f20009e007800808f500046
:1035dc00f4ff360045f407000080fa0000000600f6
:1035ec000000fa0047f4070070ccb300faf40700af
:1035fc003ef407000080fa00000006000000fa000c
:10360c0040f4070070ccb30090f4070037f40700c7
:10361c000080fa00000006000400fa00008fbe00d3
:10362c0038f4070000c2b300ebf40700f0ff2f00e2
:10363c00f10f20001e01be00020278000301780089
:10364c008001780001007800030262000000610034
:10365c008000eb00c000dd00000020000001be0077
:10366c006120b80000017100818171004018de00fa
:10367c000100200000407800d7f40700f0ff2f0075
:10368c00010020001e01be00020278000301780038
:10369c0080017800010078000302620000006100e4
:1036ac008000eb00c000dd00000020000001be0027
:1036bc006120b8000001710081817100481add00a1
:1036cc004810de0000007200c818de0000407800d0
:1036dc00c1f407001e00780000407800bef407001b
:1036ec0002f407000080fa00000006000400fa0053
:1036fc00008fbe0003f4070000c2b30053f40700b0
:10370c00f0ff2f00f10f20001e01be000202780016
:10371c000301780080017800010078000302620048
:10372c00000061008000eb00c000dd000000200004
:10373c000001be006120b8000001710081817100a0
:10374c004018de0001002000004078003ff4070024
:10375c00f0ff2f00010020001e01be0002027800c5
:10376c0003017800800178000100780003026200f8
:10377c00000061008000eb00c000dd0000002000b4
:10378c000001be006120b800000171008181710050
:10379c00481add004810de0000007200c818de0078
:1037ac000040780029f407001e00780000407800e3
:1037bc0026f40700cdf307000080fa000000060095
:1037cc000400fa00008fbe00cef3070080cdb300da
:1037dc0081f40700f0ff2f00f10f20001e01be0046
:1037ec000202780003017800800178000100780063
:1037fc0003026200000061008000eb00c000dd00ed
:10380c00000020000001be006120b8000001710022
:10381c00818171004018de0001002000004078001a
:10382c006df40700f0ff2f00010020001e01be0008
:10383c000202780003017800800178000100780012
:10384c0003026200000061008000eb00c000dd009c
:10385c00000020000001be006120b80000017100d2
:10386c0081817100481add004810de0000007200f2
:10387c00c818de000040780057f407001e007800de
:10388c000040780054f4070098f307000080fa0019
:10389c00000006000400fa00008fbe0099f3070038
:1038ac0080cdb300e9f30700f0ff2f00f10f2000eb
:1038bc001e01be000202780003017800800178002e
:1038cc000100780003026200000061008000eb0040
:1038dc00c000dd00000020000001be006120b80027
:1038ec0000017100818171004018de000100200090
:1038fc0000407800d5f30700f0ff2f0001002000f6
:10390c001e01be00020278000301780080017800dd
:10391c000100780003026200000061008000eb00ef
:10392c00c000dd00000020000001be006120b800d6
:10393c000001710081817100481add004810de0021
:10394c0000007200c818de0000407800bff30700ca
:10395c001e00780000407800bcf3070063f30700fa
:10396c000080fa00000006000000fa0065f3070072
:10397c000040eb0018f407005cf307000080fa002d
:10398c00000006000000fa005ef307000040eb00a8
:10399c00aef3070055f307000080fa0000000600a4
:1039ac000000fa0057f3070060c6b3000af40700e2
:1039bc004ef307000080fa00000006000000fa0039
:1039cc0050f3070060c6b300a0f3070047f30700ed
:1039dc000080fa00000006000000fa0049f307001e
:1039ec0090c9b300fcf3070040f307000080fa0015
:1039fc00000006000000fa0042f3070090c9b30073
:103a0c0092f3070039f307000080fa00000006006b
:103a1c000000fa003bf3070080c3b3008bf30700f0
:103a2c0032f307000080fa00000006000000fa00e4
:103a3c0034f3070000c0eb00e7f307002bf307009b
:103a4c000080fa00000006000000fa002df30700c9
:103a5c0000c0eb007df3070024f307000080fa00a0
:103a6c00000006000000fa0026f3070000cbb300ac
:103a7c00d9f307001df307000080fa0000000600d0
:103a8c000000fa001ff3070000cbb3006ff3070030
:103a9c0016f307000080fa00000006000000fa0090
:103aac0018f3070000c3b300cbf307000ff30700b4
:103abc000080fa00000006000000fa0011f3070075
:103acc0000c3b30061f3070008f307000080fa009d
:103adc00000006000400fa00000f7800214798004f
:103aec0008f3070010c0b300bbf307001e007800fa
:103afc004800de0000407800b7f307002e4090002d
:103b0c00e24f500003003a001e007800004078009d
:103b1c00b1f30700f5f207000080fa000000060080
:103b2c000400fa00000f780021479800f5f2070016
:103b3c0010c0b30045f307001e0078004800de00fb
:103b4c000040780041f307002e409000e24f5000f7
:103b5c0003003a001e007800004078003bf3070099
:103b6c00e2f207000080fa00000006000e00fa00e6
:103b7c0020079800320798004307980054079800d4
:103b8c00650798006000b800008fbe005e019000d1
:103b9c00ee0190000080200001002000800f5100f9
:103bac00818f5900040036000080200001002000a5
:103bbc005007980061079800d2f2070080c8b30044
:103bcc0085f307003e009000ce0090004809dd0010
:103bdc004800de0000007100c808de0000407800dc
:103bec007df307003e009000004078007af3070058
:103bfc003e0090000040780077f307003e009000f4
:103c0c000040780074f307003e00900000407800fc
:103c1c0071f307006000b800008fbe000a00370087
:103c2c0051f40700ae009000804878002e00900000
:103c3c000000e8002007980012002000030020007c
:103c4c001e0f41005e9749005e009000ee00900050
:103c5c001e01be00800f5100818f5900f0ff39000a
:103c6c00a2f207000080fa00000006000e00fa0025
:103c7c0020079800320798004307980054079800d3
:103c8c00650798006000b800008fbe005e019000d0
:103c9c00ee0190000080200001002000800f5100f8
:103cac00818f5900040036000080200001002000a4
:103cbc00500798006107980092f2070080c8b30083
:103ccc00e2f207003e009000ce0090004809dd00b3
:103cdc004800de0000007100c808de0000407800db
:103cec00daf207003e00900000407800d7f207009f
:103cfc003e00900000407800d4f207006000b8004d
:103d0c00008fbe000a00370081f30700ae00900060
:103d1c00804878002e0090000000e80020079800f2
:103d2c0012002000030020001e0f41005e97490086
:103d3c005e009000ee0090001e01be00800f51004e
:103d4c00818f5900f0ff390068f207000080fa00fb
:103d5c00000006000e00fa002007980032079800b9
:103d6c004307980054079800650798006000b80056
:103d7c00008fbe005e019000ee019000001020004c
:103d8c0001002000800f5100818f59000400360083
:103d9c0000102000010020005007980061079800d7
:103dac0058f2070050cab3000bf307003e00900016
:103dbc00ce0090004809dd004800de0000007100d4
:103dcc00c808de000040780003f307003e009000b6
:103ddc000040780000f307006000b800008fbe00c0
:103dec000a0037002e00900010407800faf207000d
:103dfc002e0090000000e800200798001200200020
:103e0c00030020001e0f41005e9749005e009000e9
:103e1c00ee0090001e01be00800f5100818f5900f2
:103e2c00f0ff390031f207000080fa0000000600b4
:103e3c000e00fa00200798003207980043079800fc
:103e4c0054079800650798006000b800008fbe000a
:103e5c005e019000ee019000001020000100200097
:103e6c00800f5100818f5900040036000010200093
:103e7c0001002000500798006107980021f207000c
:103e8c0050cab30071f207003e009000ce009000c3
:103e9c004809dd004800de0000007100c808de00a3
:103eac000040780069f207003e0090000040780066
:103ebc0066f207006000b800008fbe000a003700f1
:103ecc002e0090001040780060f207002e00900049
:103edc000000e800200798001200200003002000da
:103eec001e0f41005e9749005e009000ee009000ae
:103efc001e01be00800f5100818f5900f0ff390068
:103f0c00faf107000080fa00000006000000fa0039
:103f1c00fcf1070050c8b300aff20700f3f1070043
:103f2c000080fa00000006000000fa00f5f107001e
:103f3c0050c8b30045f20700ecf107000080fa000e
:103f4c00000006000200fa00881f78000000eb0059
:103f5c00000f7800ebf1070020c7b3009ef20700ba
:103f6c0000c0eb009cf2070060002000000f7800fe
:103f7c00080037001e04e9007bf307008080fb007b
:103f8c000801440080a020000000410001087800d6
:103f9c001e0fe9001e0078000000e000f5ff3a005b
:103fac00d2f107004f0478000080fa0000000600f0
:103fbc000200fa00881f78000040eb00004f7800e8
:103fcc00d0f1070020c7b30020f2070060c0b30097
:103fdc00004f7800090037001e80fb000004e90048
:103fec00cbf207008080fb000801440080a0200079
:103ffc0000004100010878001e4fe9001e407800c7
:10400c000004e000f4ff3a00b8f107004f04780018
:10401c000080fa00000006000200fa000040eb00ed
:10402c00004f7800b7f1070020c4b3006af2070014
:10403c0060c0b300004f7800090037001e80fb0001
:10404c000000e9008000400080a0200000804000bb
:10405c0010007800004078005ff207001e4fe90066
:10406c001e4078000004e000f4ff3a009ff10700c6
:10407c000080fa00000006000200fa000040eb008d
:10408c00004f78009ff1070020c4b300eff1070048
:10409c0060c0b300004f7800090037001e80fb00a1
:1040ac000000e9008000400080a02000008040005b
:1040bc001000780000407800e4f107001e4fe90082
:1040cc001e4078000004e000f4ff3a0087f107007e
:1040dc000080fa00000006000000fa0089f10700d9
:1040ec0080c9b300d9f1070080f107000080fa0005
:1040fc00000006000000fa0082f1070080c9b3003e
:10410c0035f2070079f107000080fa000000060084
:10411c000000fa007bf10700d0c8b3002ef20700b4
:10412c0072f107000080fa00000006000000fa009f
:10413c0074f10700d0c8b300c4f107006bf107009d
:10414c000080fa00000006000200fa000040eb00bc
:10415c00004f78006bf1070080ceb3001ef2070011
:10416c0060c0b300004f7800090037001e80fb00d0
:10417c000000e9008000400080a02000008040008a
:10418c00100078000040780013f207001e4fe90081
:10419c001e4078000004e000f4ff3a0053f10700e1
:1041ac000080fa00000006000200fa000040eb005c
:1041bc00004f780053f1070080ceb300a3f1070045
:1041cc0060c0b300004f7800090037001e80fb0070
:1041dc000000e9008000400080a02000008040002a
:1041ec00100078000040780098f107001e4fe9009d
:1041fc001e4078000004e000f4ff3a003bf1070099
:10420c000080fa00000006000200fa0010c8b3009b
:10421c00004f780002003700e3f20700004f7800ef
:10422c009e00fb0010082000808060001008200019
:10423c00808f5000f8ff32009e00fb001008200019
:10424c008080600000082000808f5000f2ff320058
:10425c009e00fb001008200000806000e10f500061
:10426c00edff32000080fa00000006000000fa00aa
:10427c0001003700daf20700d9f207000004e00071
:10428c00fcff35000080fa00000006000600fa0072
:10429c0010079800210798000040eb00004f7800b1
:1042ac0018f10700a0c5b30068f107001e019000cb
:1042bc00ae019000f0ff2f00f10f200002027800f9
:1042cc00030178008001780001007800030262008d
:1042dc00000061008000eb00c000dd000000200049
:1042ec000001be006120b8000001710081817100e5
:1042fc004018de00010020000040780053f1070058
:10430c001e019000ae019000f0ff2f000100200074
:10431c000202780003017800800178000100780027
:10432c0003026200000061008000eb00c000dd00b1
:10433c00000020000001be006120b80000017100e7
:10434c0081817100481add004810de000000720007
:10435c00c818de00004078003cf107001e009000f9
:10436c000040780039f1070000c0eb0037f107007e
:10437c00e7f10700004f7800dcf007001e407800e2
:10438c000080fa00000006002208fa000000eb0092
:10439c00200f98006000b800008fbe006000b800cd
:1043ac0020079800310798000040eb002057980038
:1043bc0010002000000f98000000eb006007980030
:1043cc001000200070079800f0ff2f001100200053
:1043dc00300f9800410f98000428ef000628ef00da
:1043ec000040eb00205f98000368ef00601980002c
:1043fc000010a0006019880065f00700bbf00700f2
:10440c00d8f00700cbf007000cf107006000b800f3
:10441c00008fbe000600370000c0eb00a1f00700c3
:10442c0012002000030020001e0f41005e9749007f
:10443c00f0ff2f00010020001e01be00800f510074
:10444c00818f5900f4ff360092f2070064f20700e6
:10445c000080fb008000eb00600f9800710f98004b
:10446c006e099000fe0990004818dd00c810de00af
:10447c00810070004810dd00600f9800710f9800eb
:10448c006e089000fe0890000010a000600f9800cd
:10449c00710f98006e08900021c0b300a0fd0700ba
:1044ac005bf207000080fb00001798009df20700ec
:1044bc000180200091407800f0cbb30080cf5000f9
:1044cc0011003a00118020009140780060c2b300c6
:1044dc0080cf50000c003a002180200091407800e1
:1044ec0010c5b30080cf500007003a000e089000b2
:1044fc00e10f500004003a006e0090000000e8004c
:10450c0060079800020037000000eb00000f9800d5
:10451c006e0090000040780062f007006000b80068
:10452c00008fbe000a0037001e007800800040009b
:10453c008080200000804000a10a20000108780043
:10454c0012002000030020001e0f41005e9749005e
:10455c00f00f2000010020001e01be00800f510052
:10456c00818f5900f0ff36004af207000000eb0083
:10457c00405088000000eb00505088000000eb0019
:10458c00605088000000eb00705088000000eb00c9
:10459c00805088000000eb0090508800b6fe0700a9
:1045ac0032ff07003bf2070014fc07002fff070047
:1045bc006000b800008fbe0036f207000a0037001a
:1045cc0034f2070050c0b30036f007001e00be00e6
:1045dc0071fb070025ff07000210200003002000dc
:1045ec001e0f41005e9749003e089000ce089000d7
:1045fc001e01be00800f5100818f5900f0ff390061
:10460c0024f207006000b8002007980031079800da
:10461c002600370002042000030020002e0090002a
:10462c00be009000ecf307006000b800008fbe00e5
:10463c00120037001e0078008000400080802000af
:10464c000080400090007800a00a2000808f50006d
:10465c0004003a007e009000610060007007980032
:10466c00020037000000eb007007980012002000d9
:10467c00030020001e0f41005e974900f00320004c
:10468c00010020001e01be00800f5100818f5900d7
:10469c00e8ff36002e009000be0090000004b00031
:1046ac000180b00020079800310798002e0190007f
:1046bc00be0190003e089000ce089000800f510083
:1046cc00818f5900d3ff39007e009000e10f50001c
:1046dc000a003a000e089000e10f500007003a0063
:1046ec006e0090000000e800600798000e08900033
:1046fc0061006000000f9800020037000000eb0022
:10470c00000f98006e00900000407800e5ef070065
:10471c00e0f107006000b800f4fb0700d3fe0700cf
:10472c006000b80020079800310798002c00370073
:10473c00d8f1070030c0b3001dfa070002c4b30063
:10474c002e009000be00900077fa07006000b800c1
:10475c004007980051079800140037004e00900055
:10476c008000400080802000008040009000780095
:10477c00f00f2000808f500004003a007e00900063
:10478c006100600070079800020037000000eb0029
:10479c00700798004e009000de0090006100400011
:1047ac00e080480040079800510798004e019000a7
:1047bc00de019000e003200001002000800f51007a
:1047cc00818f5900e5ff36002e009000be0090004e
:1047dc000004b0000180b000200798003107980059
:1047ec002e019000be019000f0ff2000010020007f
:1047fc00800f5100818f5900cdff36000000210041
:10480c000100200020079800310798002c00370089
:10481c00a0f1070030c0b300e5f9070002c4b300f3
:10482c002e009000be0090003ffa07006000b80018
:10483c004007980051079800140037004e00900074
:10484c0080004000808020000080400090007800b4
:10485c00a00a2000808f500004003a007e009000d7
:10486c006100600070079800020037000000eb0048
:10487c00700798004e009000de0090006100400030
:10488c00e080480040079800510798004e019000c6
:10489c00de019000e003200001002000800f510099
:1048ac00818f5900e5ff36002e009000be0090006d
:1048bc000004b0000180b000200798003107980078
:1048cc002e019000be019000f0ff2100010020009d
:1048dc00800f5100818f5900cdff36007e00900073
:1048ec00e10f50000a003a000e089000e10f500052
:1048fc0007003a006e0090000000e8006007980086
:10490c000e08900061006000000f98000200370054
:10491c000000eb00000f98006e0090000040780043
:10492c0060ef07005bf107006000b800d9fb0700df
:10493c004efe07006000b800200798003107980071
:10494c002c00370053f1070030c0b30098f9070072
:10495c0002c4b3002e009000be009000f2f90700d4
:10496c006000b80040079800510798001400370009
:10497c004e009000800040008080200000804000ad
:10498c0090007800f00f2000808f500004003a0057
:10499c007e009000610060007007980002003700f4
:1049ac000000eb00700798004e009000de009000b5
:1049bc0061004000e08048004007980051079800d3
:1049cc004e019000de019000e00320000100200069
:1049dc00800f5100818f5900e5ff36002e009000aa
:1049ec00be0090000004b0000180b00020079800c9
:1049fc00310798002e019000be019000f0ff2100bd
:104a0c0001002000800f5100818f5900cdff36002e
:104a1c0000002200010020002007980031079800b8
:104a2c002c0037001bf1070030c0b30060f9070001
:104a3c0002c4b3002e009000be009000baf907002b
:104a4c006000b80040079800510798001400370028
:104a5c004e009000800040008080200000804000cc
:104a6c0090007800a00a2000808f500004003a00cb
:104a7c007e00900061006000700798000200370013
:104a8c000000eb00700798004e009000de009000d4
:104a9c0061004000e08048004007980051079800f2
:104aac004e019000de019000e00320000100200088
:104abc00800f5100818f5900e5ff36002e009000c9
:104acc00be0090000004b0000180b00020079800e8
:104adc00310798002e019000be019000f0ff2200db
:104aec0001002000800f5100818f5900cdff36004e
:104afc007e009000e10f50000a003a000e08900072
:104b0c00e10f500007003a006e0090000000e80032
:104b1c00600798000e08900061006000000f98007c
:104b2c00020037000000eb00000f98006e009000b0
:104b3c0000407800dbee0700d6f00700affa070064
:104b4c00cafd07006000b8002007980031079800e4
:104b5c002c003700cff0070030c0b30014f9070069
:104b6c0002c4b3002e009000be0090006ef9070046
:104b7c006000b800400798005107980014003700f7
:104b8c004e0090008000400080802000008040009b
:104b9c0090007800f00f2000808f500004003a0045
:104bac007e009000610060007007980002003700e2
:104bbc000000eb00700798004e009000de009000a3
:104bcc0061004000e08048004007980051079800c1
:104bdc004e019000de019000e00320000100200057
:104bec00800f5100818f5900e5ff36002e00900098
:104bfc00be0090000004b0000180b00020079800b7
:104c0c00310798002e019000be0190003e089000e4
:104c1c00ce089000800f5100818f5900cdff3900d4
:104c2c007e009000e10f50000a003a000e08900040
:104c3c00e10f500007003a006e0090000000e80001
:104c4c00600798000e08900061006000000f98004b
:104c5c00020037000000eb00000f98006e0090007f
:104c6c00004078008fee07000068ef000168ef004d
:104c7c000268ef0066fb07007ff007009af0070060
:104c8c000180200091407800f0cbb30080cf500021
:104c9c0014003a00118020009140780060c2b300eb
:104cac0080cf50000f003a00218020009140780006
:104cbc0010c5b30080cf50000a003a000e089000d7
:104ccc00e10f500007003a006e0090000000e80071
:104cdc00600798000e08900061006000000f9800bb
:104cec00020037000000eb00000f98006e009000ef
:104cfc00004078006bee07006e00900000407800da
:104d0c0068ee07006000b800008fbe000a00370094
:104d1c001e00780080004000808020000080400051
:104d2c00a10a2000010878001200200003002000d6
:104d3c001e0f41005e974900f00f2000010020007b
:104d4c001e01be00800f5100818f5900f0ff36000c
:104d5c0049f007000000eb00405088000000eb0019
:104d6c00505088000000eb00605088000000eb0001
:104d7c00705088000000eb00805088000000eb00b1
:104d8c0090508800a4fc07001ffd07003af00700b4
:104d9c0013fa07001cfd070037f007006000b8008d
:104dac00008fbe000800370033f007001e00be0065
:104dbc0030f9070014fd070002102000030020004a
:104dcc001e0f41005e9749003e089000ce089000ef
:104ddc001e01be00800f5100818f5900f2ff390077
:104dec0025f007006000b8002007980031079800f4
:104dfc002800370030c0b30063f8070002c4b300ca
:104e0c002e009000be00900073f80700fefc070017
:104e1c006000b800008fbe00120037001e00780042
:104e2c0080004000808020000080400090007800ce
:104e3c00a00a2000808f500004003a007e009000f1
:104e4c006100600070079800020037000000eb0062
:104e5c007007980012002000030020001e0f410074
:104e6c005e974900f0032000010020001e01be00e7
:104e7c00800f5100818f5900e8ff36002e00900002
:104e8c00be0090000004b0000180b0002007980024
:104e9c00310798002e019000be0190003e08900052
:104eac00ce089000800f5100818f5900d1ff39003e
:104ebc007e009000e10f50000a003a000e089000ae
:104ecc00e10f500007003a006e0090000000e8006f
:104edc00600798000e08900061006000000f9800b9
:104eec00020037000000eb00000f98006e009000ed
:104efc0000407800ebed0700dfef07006000b80022
:104f0c00c5f90700c0fc07006000b8002007980036
:104f1c00310798002c003700d7ef070030c0b300e2
:104f2c0019f8070002c4b3002e009000be009000d8
:104f3c0029f807006000b800400798005107980056
:104f4c00140037004e00900080004000808020004c
:104f5c000080400090007800f00f2000808f5000ff
:104f6c0004003a007e009000610060007007980019
:104f7c00020037000000eb00700798004e00900014
:104f8c00de00900061004000e0804800400798007f
:104f9c00510798004e019000de019000e0032000c4
:104fac0001002000800f5100818f5900e5ff360071
:104fbc002e009000be0090000004b0000180b000f4
:104fcc0020079800310798002e019000be01900038
:104fdc00f0ff200001002000800f5100818f59004c
:104fec00cdff3600000021000100200020079800b2
:104ffc00310798002c0037009fef070030c0b3003a
:10500c00e1f7070002c4b3002e009000be00900030
:10501c00f1f707006000b8004007980051079800ae
:10502c00140037004e00900080004000808020006b
:10503c000080400090007800a00a2000808f500073
:10504c0004003a007e009000610060007007980038
:10505c00020037000000eb00700798004e00900033
:10506c00de00900061004000e0804800400798009e
:10507c00510798004e019000de019000e0032000e3
:10508c0001002000800f5100818f5900e5ff360090
:10509c002e009000be0090000004b0000180b00013
:1050ac0020079800310798002e019000be01900057
:1050bc00f0ff210001002000800f5100818f59006a
:1050cc00cdff36007e009000e10f50000a003a0040
:1050dc000e089000e10f500007003a006e0090009f
:1050ec000000e800600798000e0890006100600066
:1050fc00000f9800020037000000eb00000f980032
:10510c006e0090000040780066ed07005aef070033
:10511c006000b800aaf907003bfc07006000b8006b
:10512c0020079800310798002c00370052ef070039
:10513c0030c0b30094f7070002c4b3002e009000f7
:10514c00be009000a4f707006000b800400798006c
:10515c0051079800140037004e009000800040006a
:10516c00808020000080400090007800f00f20002c
:10517c00808f500004003a007e00900061006000b7
:10518c0070079800020037000000eb0070079800d1
:10519c004e009000de00900061004000e08048006e
:1051ac0040079800510798004e019000de019000d6
:1051bc00e003200001002000800f5100818f590076
:1051cc00e5ff36002e009000be0090000004b000f9
:1051dc000180b00020079800310798002e01900044
:1051ec00be019000f0ff210001002000800f510053
:1051fc00818f5900cdff36000000220001002000f5
:10520c0020079800310798002c0037001aef070090
:10521c0030c0b3005cf7070002c4b3002e0090004e
:10522c00be0090006cf707006000b80040079800c3
:10523c0051079800140037004e0090008000400089
:10524c00808020000080400090007800a00a2000a0
:10525c00808f500004003a007e00900061006000d6
:10526c0070079800020037000000eb0070079800f0
:10527c004e009000de00900061004000e08048008d
:10528c0040079800510798004e019000de019000f5
:10529c00e003200001002000800f5100818f590095
:1052ac00e5ff36002e009000be0090000004b00018
:1052bc000180b00020079800310798002e01900063
:1052cc00be019000f0ff220001002000800f510071
:1052dc00818f5900cdff36007e009000e10f500009
:1052ec000a003a000e089000e10f500007003a0047
:1052fc006e0090000000e800600798000e08900017
:10530c0061006000000f9800020037000000eb0005
:10531c00000f98006e00900000407800e1ec070050
:10532c00d5ee0700aef80700b7fb07006000b80029
:10533c0020079800310798002c003700ceee0700ac
:10534c0030c0b30010f7070002c4b3002e00900069
:10535c00be00900020f707006000b80040079800de
:10536c0051079800140037004e0090008000400058
:10537c00808020000080400090007800f00f20001a
:10538c00808f500004003a007e00900061006000a5
:10539c0070079800020037000000eb0070079800bf
:1053ac004e009000de00900061004000e08048005c
:1053bc0040079800510798004e019000de019000c4
:1053cc00e003200001002000800f5100818f590064
:1053dc00e5ff36002e009000be0090000004b000e7
:1053ec000180b00020079800310798002e01900032
:1053fc00be0190003e089000ce089000800f510036
:10540c00818f5900cdff39007e009000e10f5000d4
:10541c000a003a000e089000e10f500007003a0015
:10542c006e00900063004000600798000e0890002a
:10543c0061006000000f9800020037000000eb00d4
:10544c00000f98006e0090000040780095ec07006b
:10545c0053f9070060f9070074f907006e0090001b
:10546c00205798000e0890000000e00004003a005d
:10547c00ae50900000c8b30000c0700020579800d8
:0c548c002e50900087ec0700fdff370059
:020000040000fa
:10549800080800001c0200000000000000080000ce
:0c54a800080000000000000000000000f0
:020000040000fa
:020000040002f8
:04aff800dfff000077
:020000040000fa
:020000040002f8
:04affc007f3f000093
:00000001FF
