:020000040000fa
:080000000002040000000000f2
:020000040000fa
:1000080090020000900200009002000090020000a0
:100018009002000090020000900200009002000090
:100028009002000090020000900200009002000080
:100038009002000090020000900200009002000070
:020000040000fa
:020000040000fa
:100400004fa220000e7f22000e0188000000000095
:100410000c000700802f22000100200011000700bf
:10042000000020000000e000020032000000020096
:1004300000000000c2210200000000000040da00bd
:100440000000fe004440a900000020000000e00081
:100450000300320000002000a00188004440a800f2
:100460000000060091018800800078000000eb0089
:1004700015003700e280400032a0b4009101ba00bc
:10048000e280400032a0b4009102ba00e280400055
:1004900032a0b4000002eb00472bde00f507b200eb
:1004a000602ce10004003a000059eb008301e900f0
:1004b000fdff3e00040037006128e100010032002a
:1004c0000082eb00040007001101ba000200e00006
:1004d000e8ff3a00000006003159ba008301e90044
:1004e0000c0032002159ba008301e90008003200f3
:1004f0000400e00003003a00e280400032a0b400b3
:10050000f5ff370011d9ba008301e900faff3a007c
:100510008100e800e180400032a0b4000000060045
:080520000040da000000fe00bb
:020000040000fa
:100528000000fa000000eb00201688000000eb0035
:10053800001688000000eb00101788000000eb0090
:10054800f01688000080fa00000006000000fa009b
:10055800f1168000f0ef2f0000806000f016880090
:100568000080fa00000006000000fa00f116800082
:100578000010200000807000f01688000080fa004b
:10058800000006000000fa00f1168000f0f72f00c6
:1005980000806000f01688000080fa000000060065
:1005a8000000fa00f11680000008200000807000aa
:1005b800f01688000080fa00000006000000fa002b
:1005c800f1168000e0ff2f0000806000f016880020
:1005d8000080fa00000006000000fa00f016800013
:1005e8000000a000f01688000080fa000000060055
:1005f8000000fa00f1168000d0ff2f000080600094
:10060800f01688000080fa00000006000000fa00da
:10061800f01680000010a000f01688000080fa0094
:10062800000006000200fa00004f78001e00fb00e0
:10063800201688000080fa00000006000000fa007a
:100648001117800000042000008070001017880037
:100658000080fa00000006000000fa001117800070
:10066800f0fb2f0000806000101788000080fa005f
:10067800000006000000fa00101780000020a0000b
:10068800101788000080fa00000006000000fa0039
:1006980011178000b0ff2f0000806000101788003d
:1006a8000080fa00000006000000fa001117800020
:1006b800d0ff2f0000806000101788000080fa002b
:1006c800000006000000fa00101780000010a000cb
:1006d800101788000080fa00000006000000fa00e9
:1006e80011178000e0ff2f000080600010178800bd
:1006f8000080fa00000006000000fa0010178000d1
:100708000000a000101788000080fa000000060012
:100718000000fa001117800000102000008070000f
:10072800101788000080fa00000006000000fa0098
:1007380011178000f0ef2f0000806000101788006c
:100748000080fa00000006000000fa00111780007f
:100758000008200000807000101788000080fa0050
:10076800000006000000fa0011178000f0f72f00c3
:1007780000806000101788000080fa000000060062
:100788000000fa00101780000000a0001017880071
:100798000080fa00000006000000fa00111780002f
:1007a800e0ff2f0000806000101788000080fa002a
:1007b800000006000000fa00101780000010a000da
:1007c800101788000080fa00000006000000fa00f8
:1007d80011178000d0ff2f000080600010178800dc
:1007e8000080fa00000006000000fa009aff0700e7
:1007f8000080fa00000006000400fa002047980074
:100808000040eb00004f780050ff07000040eb006d
:10081800004f78000c0037002e409000e04f500049
:1008280002003d00baff070001003700bfff0700c4
:1008380082ff07002e4090000040400020479800ab
:1008480085ff07001e4fe8001e407800e74f500064
:10085800f1ff36000080fa00000006000200fa00ee
:10086800004f780039ff070046ff07001e40780058
:10087800e04f500002003d00b3ff070001003700c1
:10088800b8ff07001e4078008080fb0000042000ad
:1008980000806000e00f5000020032009cff07005b
:1008a80001003700a1ff070064ff07006aff070087
:1008b8001e4078008080fb0000022000008060005d
:1008c800e00f5000020032009fff070001003700d0
:1008d800a4ff07009e4078000180fb0070006000c4
:1008e800e00f50000200320089ff070001003700c6
:1008f8008eff070051ff070057ff07009e40780052
:100908000180fb0068006000e00f50000200320028
:100918008dff07000100370092ff07009e40780016
:100928000180fb0064006000e00f5000020032000c
:1009380077ff0700010037007cff07003fff070033
:1009480045ff07009e4078000180fb0062006000c0
:10095800e00f5000020032007bff07000100370063
:1009680080ff07009e4078000180fb006100600066
:1009780000407800e04f50000200320064ff07009a
:100988000100370069ff07002cff070060ff070020
:100998006dff070030ff07000080fa000000060026
:1009a8000200fa00004f7800e8fe0700f5fe070095
:1009b80002ff07000eff07001e407800e04f5000be
:1009c80002003d007bff0700010037007fff0700a2
:1009d8001e4078008080fb0000042000008060003a
:1009e800e00f50000200320065ff070001003700e9
:1009f80069ff07001e4078008080fb00000220008d
:100a080000806000e00f5000020032004eff070037
:100a18000100370053ff07009e4078000180fb006b
:100a280070006000e00f50000200320038ff07003d
:100a3800010037003dff070000ff070006ff070021
:100a48009e4078000180fb0068006000e00f5000c5
:100a58000200320057ff0700010037005bff070064
:100a68009e4078000180fb0064006000e00f5000a9
:100a78000200320042ff07000100370046ff07006e
:100a88009e4078000180fb0062006000e00f50008b
:100a9800020032002cff07000100370031ff070079
:100aa8009e4078000180fb006100600000407800f3
:100ab800e04f50000200320015ff07000100370028
:100ac8001aff0700ddfe070011ff07001eff0700e1
:100ad8002bff070037ff0700a3fe0700b0fe070043
:100ae800bdfe0700c9fe0700dbfe07000080fa0014
:100af800000006000400fa000040eb00004f7800f8
:100b08000040eb00104798000040eb002047980099
:100b1800a3fe07000040eb00004f780011003700eb
:100b28001e409000004040001047980001178000c8
:100b380000082000008060004700de002047980081
:100b4800befe07002e409000e14f500003003a001f
:100b58001e4090000004a00010479800befe070049
:100b68001e4fe8001e407800e74f5000ecff3600ab
:100b78001e4090000080fa00000006000400fa0001
:100b88000040eb00004f78000040eb001047980051
:100b98000040eb00204798000040eb0030479800e9
:100ba80071fe07007efe07000040eb00004f780052
:100bb8001f0037001e40900000404000104798007a
:100bc8000117800000082000008060004700de0058
:100bd8002047980001178000001020000080600066
:100be8004800de003047980094fe07002e40900031
:100bf800e14f500003003a001e4090000004a0009e
:100c0800104798001e409000004040001047980090
:100c18003e409000e14f500003003a001e40900013
:100c28000004a000104798008bfe07001e4fe80044
:100c38001e407800e34f5000deff36001e40900053
:100c48000080fa00000006000600fa000040eb00f1
:100c5800004f78000040eb00104798000040eb0080
:100c6800204798000040eb00304798000040eb0018
:100c7800404798003cfe070049fe070056fe070063
:100c880062fe070000178000620060000000d100cb
:100c9800104798000017800000407800614060000d
:100ca800204798000117800000082000008060009d
:100cb8004700de0030479800011780000010200030
:100cc800008060004800de00404798005bfe070097
:100cd8001e409000e14f500002003a0010c0b300df
:100ce800004f78001e40780000404000004f780018
:100cf8002e409000e14f500001003a001e04a00071
:100d08001e40780000404000004f78003e409000b0
:100d1800e14f500001003a001e04a0001e40780078
:100d280000404000004f78004e409000e14f5000d6
:100d380001003a001e04a00047fe07001e4078008c
:100d48000080fa00000006000200fa000040eb00f4
:100d5800004f7800bcff0700004f78001e40780065
:100d6800410020000100dd00004f7800b6ff0700b9
:100d7800104798001e4090001e4f70001e407800db
:100d88000080fa00000006000200fa000040eb00b4
:100d9800004f78003dfe070050c0b30000ff070079
:100da80000c0eb00fefe0700e7ff0700004f7800d9
:100db80030fe07001e4078000080fa0000000600a0
:100dc8000200fa000040eb00004f78002ffe0700f9
:100dd80050c0b30088fe070046ff0700004f7800a8
:100de80024fe07001e4078000080fa00000006007c
:100df8000200fa000040eb00004f780023fe0700d5
:100e080050c3b3007cfe07003aff0700004f78008c
:100e180018fe07001e4078000080fa000000060057
:100e28000200fa000040eb00004f780017fe0700b0
:100e380050c3b300dafe070000c0eb00d8fe07007d
:100e4800c1ff0700004f78000afe07001e40780027
:100e58000080fa00000006000000fa000bfe070000
:100e680060c0b300cefe070002fe07000080fa0053
:100e7800000006000000fa0004fe070060c0b3008e
:100e88005dfe0700fbfd07000080fa000000060079
:100e98000000fa00fdfd070040c0b300c0fe0700d7
:100ea800f4fd07000080fa00000006000000fa00c8
:100eb800f6fd070040c0b3004ffe0700edfd070038
:100ec8000080fa00000006000000fa00effd0700ad
:100ed800f0cab300b2fe070000c0eb00b0fe070086
:100ee80099ff07000ceab70097ff07000deab70063
:100ef80095ff07000eeab700defd07000080fa0044
:100f0800000006000000fa00e0fd0700f0c9b30089
:100f180039fe0700f7fe07000ceab700f5fe0700e8
:100f28000deab700f3fe07000eeab700d1fd07008f
:100f38000080fa00000006000600fa00100798007a
:100f4800210798000040eb00004f7800cffd070014
:100f580030c0b30028fe07001e019000ae019000cb
:100f6800f0ff2f00f10f2000020278000301780043
:100f7800800178000100780003026200000061002f
:100f880001002000c000dd00000020000001be00bc
:100f98006120b80000017100818171004018de00f5
:100fa800010020000040780013fe07001e01900099
:100fb800ae019000f0ff2f0001002000020278002f
:100fc80003017800800178000100780003026200c4
:100fd8000000610001002000c000dd0000002000ca
:100fe8000001be006120b80000017100818171001c
:100ff800481add004810de0000007200c818de0044
:1010080000407800fcfd07001e00900000407800ba
:10101800f9fd0700b7fe0700004f780095fd0700af
:101028001e4078000080fa00000006000c00fa005c
:101038002007980031079800420798005307980046
:101048006000b800008fbe0090fd070030c0b300fc
:10105800e9fd07002e019000be019000f0ff2f006f
:10106800f10f200002027800030178008001780067
:101078000100780003026200000061000100200006
:10108800c000dd00000020000001be006120b800a3
:1010980000017100818171004018de00010020000c
:1010a80000407800d4fd07002e019000be0190009a
:1010b800f0ff2f00010020000202780003017800f1
:1010c80080017800010078000302620000006100de
:1010d80001002000c000dd00000020000001be006b
:1010e8006120b8000001710081817100481add009b
:1010f8004810de0000007200c818de0000407800ca
:10110800bdfd07002e00900000407800bafd0700e2
:101118004e019000de019000001020000100200028
:10112800800f5100818f5900040036000010200004
:101138000100200040079800510798006000b8009f
:10114800008fbe000b0037006afe07008080fb009e
:101158001e007800000140000080200000004100cf
:101168000108780010002000010020001e0f400038
:101178005e9748004e009000de0090001e01be0001
:10118800800f5100818f5900efff390039fd0700aa
:101198000080fa00000006000600fa001007980018
:1011a800210798000040eb00004f780037fd07004a
:1011b800b0c0b30090fd07001e019000ae01900082
:1011c800f0ff2f00f10f20000202780003017800e1
:1011d80080017800010078000302620000006100cd
:1011e80001002000c000dd00000020000001be005a
:1011f8006120b80000017100818171004018de0093
:1012080001002000004078007bfd07001e019000cf
:10121800ae019000f0ff2f000100200002027800cc
:101228000301780080017800010078000302620061
:101238000000610001002000c000dd000000200067
:101248000001be006120b8000001710081817100b9
:10125800481add004810de0000007200c818de00e1
:101268000040780064fd07001e00900000407800f0
:1012780061fd070000c0eb005ffd07001dfe0700d1
:10128800004f7800fbfc07001e4078000080fa0041
:10129800000006000600fa001007980021079800d1
:1012a8000040eb00004f7800f8fc0700b0c0b30026
:1012b800bbfd07001e019000ae019000f0ff2f005b
:1012c800f10f200002027800030178008001780005
:1012d80001007800030262000000610001002000a4
:1012e800c000dd00000020000001be006120b80041
:1012f80000017100818171004018de0001002000aa
:1013080000407800a6fd07001e019000ae01900085
:10131800f0ff2f000100200002027800030178008e
:10132800800178000100780003026200000061007b
:1013380001002000c000dd00000020000001be0008
:101348006120b8000001710081817100481add0038
:101358004810de0000007200c818de000040780067
:101368008ffd07001e009000004078008cfd0700ec
:10137800f0cab3008afd070000c0eb0088fd070033
:1013880000c0eb0086fd07006ffe0700004f7800e5
:10139800b8fc07001e4078000080fa000000060034
:1013a8000600fa0010079800210798000040eb009b
:1013b800004f7800b5fc0700b0c0b30078fd070007
:1013c8001e019000ae019000f0ff2f00f10f2000e9
:1013d800020278000301780080017800010078009b
:1013e800030262000000610001002000c000dd006f
:1013f800000020000001be006120b800000171005b
:10140800818171004018de00010020000040780052
:1014180063fd07001e019000ae019000f0ff2f0051
:1014280001002000020278000301780080017800a2
:101438000100780003026200000061000100200042
:10144800c000dd00000020000001be006120b800df
:101458000001710081817100481add004810de002a
:1014680000007200c818de00004078004cfd07003c
:101478001e0090000040780049fd0700f0cab30044
:1014880047fd070000c0eb0045fd070000c0eb006a
:1014980043fd07002cfe0700004f780075fc07008d
:1014a8001e4078000080fa00000006000600fa00de
:1014b80010079800210798000040eb00004f7800c3
:1014c80072fc0700b0c0b30035fd07001e01900094
:1014d800ae019000f0ff2f00f10f2000020278000b
:1014e800030178008001780001007800030262009f
:1014f8000000610001002000c000dd0000002000a5
:101508000001be006120b8000001710081817100f6
:101518004018de00010020000040780020fd070090
:101528001e019000ae019000f0ff2f000100200086
:101538000202780003017800800178000100780039
:10154800030262000000610001002000c000dd000d
:10155800000020000001be006120b80000017100f9
:1015680081817100481add004810de000000720019
:10157800c818de000040780009fd07001e00900032
:101588000040780006fd0700f0ccb30004fd07001a
:1015980000c0eb0002fd070000c0eb0000fd0700e3
:1015a800e9fd0700004f780032fc07001e40780074
:1015b8000080fa00000006000c00fa0020079800de
:1015c8003107980042079800530798006000b80058
:1015d800008fbe002dfc0700b0c0b30086fc0700da
:1015e8002e019000be019000f0ff2f00f10f2000a7
:1015f8000202780003017800800178000100780079
:10160800030262000000610001002000c000dd004c
:10161800000020000001be006120b8000001710038
:10162800818171004018de00010020000040780030
:1016380071fc07002e019000be019000f0ff2f0002
:101648000100200002027800030178008001780080
:101658000100780003026200000061000100200020
:10166800c000dd00000020000001be006120b800bd
:101678000001710081817100481add004810de0008
:1016880000007200c818de00004078005afc07000d
:101698002e0090000040780057fc070000c0eb00c7
:1016a80055fc07004e019000de019000001020005c
:1016b80001002000800f5100818f5900040036007e
:1016c80000102000010020004007980051079800f2
:1016d8006000b800008fbe000b00370005fd070052
:1016e8008080fb001e007800000140000080200080
:1016f80000004100010878001000200001002000cf
:101708001e0f40005e9748004e009000de009000db
:101718001e01be00800f5100818f5900efff390074
:10172800d4fb07000080fa00000006000c00fa0055
:10173800200798003107980042079800530798003f
:101748006000b800008fbe00d0fb0700b0c0b30037
:1017580093fc07002e019000be019000f0ff2f00bf
:10176800f10f200002027800030178008001780060
:1017780001007800030262000000610001002000ff
:10178800c000dd00000020000001be006120b8009c
:1017980000017100818171004018de000100200005
:1017a800004078007efc07002e019000be019000ea
:1017b800f0ff2f00010020000202780003017800ea
:1017c80080017800010078000302620000006100d7
:1017d80001002000c000dd00000020000001be0064
:1017e8006120b8000001710081817100481add0094
:1017f8004810de0000007200c818de0000407800c3
:1018080067fc07002e0090000040780064fc070089
:10181800f0cab30062fc070000c0eb0060fc0700e0
:1018280000c0eb005efc07004e019000de01900056
:101838000010200001002000800f5100818f590006
:101848000400360000102000010020004007980026
:10185800510798006000b800008fbe000b003700e9
:1018680039fd07008080fb001e0078000001400061
:1018780000802000000041000108780010002000ce
:10188800010020001e0f40005e9748004e009000a7
:10189800de0090001e01be00800f5100818f5900ac
:1018a800efff390073fb07000080fa000000060014
:1018b8000c00fa00200798003107980042079800aa
:1018c800530798006000b800008fbe006ffb070048
:1018d8002e019000be019000f0ff2f00f10f2000b4
:1018e8000202780003017800800178000100780086
:1018f800030262000000610001002000c000dd005a
:10190800000020000001be006120b8000001710045
:10191800818171004018de0001002000004078003d
:101928001ffc07002e019000be019000f0ff2f0061
:10193800010020000202780003017800800178008d
:10194800010078000302620000006100010020002d
:10195800c000dd00000020000001be006120b800ca
:101968000001710081817100481add004810de0015
:1019780000007200c818de000040780008fc07006c
:101988002e0090000040780005fc0700f0cab30064
:1019980003fc070000c0eb0001fc070000c0eb00df
:1019a800fffb07004e019000de01900000102000b0
:1019b80001002000800f5100818f5900040036007b
:1019c80000102000010020004007980051079800ef
:1019d8006000b800008fbe000b003700dafc07007b
:1019e8008080fb001e00780000014000008020007d
:1019f80000004100010878001000200001002000cc
:101a08001e0f40005e9748004e009000de009000d8
:101a18001e01be00800f5100818f5900efff390071
:101a280014fb07000080fa00000006000c00fa0012
:101a3800200798003107980042079800530798003c
:101a48006000b800008fbe0010fb07002e01900058
:101a5800be019000f0ff2f00f10f20000202780075
:101a68000301780080017800010078000302620019
:101a78000000610001002000c000dd00000020001f
:101a88000001be006120b800000171008181710071
:101a98004018de000100200000407800c0fb07006d
:101aa8002e019000be019000f0ff2f0001002000e1
:101ab80002027800030178008001780001007800b4
:101ac800030262000000610001002000c000dd0088
:101ad800000020000001be006120b8000001710074
:101ae80081817100481add004810de000000720094
:101af800c818de0000407800a9fb07002e009000ff
:101b080000407800a6fb0700f0ccb300a4fb070058
:101b180000c0eb00a2fb070000c0eb00a0fb070021
:101b28004e019000de01900000102000010020000e
:101b3800800f5100818f59000400360000102000ea
:101b48000100200040079800510798006000b80085
:101b5800008fbe000b0037007bfc07008080fb0075
:101b68001e007800000140000080200000004100b5
:101b78000108780010002000010020001e0f40001e
:101b88005e9748004e009000de0090001e01be00e7
:101b9800800f5100818f5900efff3900b5fa070017
:101ba8000080fa00000006000600fa0010079800fe
:101bb800210798000040eb00004f7800b3fa0700b7
:101bc800b0c6b3000cfb07001e019000ae019000e8
:101bd800f0ff2f00f10f20000202780003017800c7
:101be80080017800010078000302620000006100b3
:101bf80001002000c000dd00000020000001be0040
:101c08006120b80000017100818171004018de0078
:101c18000100200000407800f7fa07001e0190003c
:101c2800ae019000f0ff2f000100200002027800b2
:101c38000301780080017800010078000302620047
:101c48000000610001002000c000dd00000020004d
:101c58000001be006120b80000017100818171009f
:101c6800481add004810de0000007200c818de00c7
:101c780000407800e0fa07001e009000004078005d
:101c8800ddfa070000c0eb00dbfa07002efc0700b6
:101c9800004f780077fa07001e4078000080fa00ad
:101ca800000006000c00fa00200798003107980091
:101cb80042079800530798006000b800008fbe00e4
:101cc80072fa0700b0c6b300cbfa07002e019000e5
:101cd800be019000f0ff2f00f10f200002027800f3
:101ce8000301780080017800010078000302620097
:101cf8000000610001002000c000dd00000020009d
:101d08000001be006120b8000001710081817100ee
:101d18004018de000100200000407800b6fa0700f5
:101d28002e019000be019000f0ff2f00010020005e
:101d38000202780003017800800178000100780031
:101d4800030262000000610001002000c000dd0005
:101d5800000020000001be006120b80000017100f1
:101d680081817100481add004810de000000720011
:101d7800c818de00004078009ffa07002e00900087
:101d8800004078009cfa070000c0eb009afa0700b0
:101d98004e019000de01900000102000010020009c
:101da800800f5100818f5900040036000010200078
:101db8000100200040079800510798006000b80013
:101dc800008fbe000b003700dffb07008080fb00a0
:101dd8001e00780000014000008020000000410043
:101de8000108780010002000010020001e0f4000ac
:101df8005e9748004e009000de0090001e01be0075
:101e0800800f5100818f5900efff390019fa070040
:101e18000080fa00000006000600fa00100798008b
:101e2800210798000040eb00004f780017fa0700e0
:101e3800b0ceb30070fa07001e019000ae0190000a
:101e4800f0ff2f00f10f2000020278000301780054
:101e58008001780001007800030262000000610040
:101e680001002000c000dd00000020000001be00cd
:101e78006120b80000017100818171004018de0006
:101e88000100200000407800c5fa07001e019000fc
:101e9800ae019000f0ff2f00010020000202780040
:101ea80003017800800178000100780003026200d5
:101eb8000000610001002000c000dd0000002000db
:101ec8000001be006120b80000017100818171002d
:101ed800481add004810de0000007200c818de0055
:101ee80000407800aefa07001e009000004078001d
:101ef800abfa0700f0cab300a9fa070000c0eb006c
:101f0800a7fa070000c0eb00a5fa07008efb070040
:101f1800004f7800d7f907001e4078000080fa00cb
:101f2800000006000600fa00100798002107980034
:101f38000040eb00004f7800d4f90700b0ceb300a2
:101f48002dfa07001e019000ae019000f0ff2f004f
:101f5800f10f200002027800030178008001780068
:101f68000100780003026200000061000100200007
:101f7800c000dd00000020000001be006120b800a4
:101f880000017100818171004018de00010020000d
:101f98000040780082fa07001e019000ae01900010
:101fa800f0ff2f00010020000202780003017800f2
:101fb80080017800010078000302620000006100df
:101fc80001002000c000dd00000020000001be006c
:101fd8006120b8000001710081817100481add009c
:101fe8004810de0000007200c818de0000407800cb
:101ff8006bfa07001e0090000040780068fa07009e
:10200800f0cab30066fa070000c0eb0064fa0700e4
:1020180000c0eb0062fa07004bfb0700004f780096
:1020280094f907001e4078000080fa0000000600be
:102038000600fa0010079800210798000040eb00fe
:10204800004f780091f90700b0ceb300eaf9070015
:102058001e019000ae019000f0ff2f00f10f20004c
:1020680002027800030178008001780001007800fe
:10207800030262000000610001002000c000dd00d2
:10208800000020000001be006120b80000017100be
:10209800818171004018de000100200000407800b6
:1020a8003ffa07001e019000ae019000f0ff2f00dc
:1020b8000100200002027800030178008001780006
:1020c80001007800030262000000610001002000a6
:1020d800c000dd00000020000001be006120b80043
:1020e8000001710081817100481add004810de008e
:1020f80000007200c818de000040780028fa0700c7
:102108001e0090000040780025fa070000c0eb0090
:1021180023fa070000c0eb0021fa070000c0eb001b
:102128001ffa070008fb0700004f780051f9070065
:102138001e4078000080fa00000006000c00fa003b
:102148002007980031079800420798005307980025
:102158006000b800008fbe004cf90700b0ceb30095
:10216800a5f907002e019000be019000f0ff2f0096
:10217800f10f200002027800030178008001780046
:1021880001007800030262000000610001002000e5
:10219800c000dd00000020000001be006120b80082
:1021a80000017100818171004018de0001002000eb
:1021b80000407800faf907002e019000be01900057
:1021c800f0ff2f00010020000202780003017800d0
:1021d80080017800010078000302620000006100bd
:1021e80001002000c000dd00000020000001be004a
:1021f8006120b8000001710081817100481add007a
:102208004810de0000007200c818de0000407800a8
:10221800e3f907002e00900000407800e0f907007d
:10222800f0cab300def9070000c0eb00dcf90700d4
:1022380000c0eb00daf907004e019000de019000c3
:102248000010200001002000800f5100818f5900ec
:10225800040036000010200001002000400798000c
:10226800510798006000b800008fbe000b003700cf
:10227800b5fa07008080fb001e00780000014000ce
:1022880000802000000041000108780010002000b4
:10229800010020001e0f40005e9748004e0090008d
:1022a800de0090001e01be00800f5100818f590092
:1022b800efff3900eff807000080fa000000060081
:1022c8000c00fa0020079800310798004207980090
:1022d800530798006000b800008fbe00ebf80700b5
:1022e8002e019000be019000f0ff2f00f10f20009a
:1022f800020278000301780080017800010078006c
:10230800030262000000610001002000c000dd003f
:10231800000020000001be006120b800000171002b
:10232800818171004018de00010020000040780023
:102338009bf907002e019000be019000f0ff2f00ce
:102348000100200002027800030178008001780073
:102358000100780003026200000061000100200013
:10236800c000dd00000020000001be006120b800b0
:102378000001710081817100481add004810de00fb
:1023880000007200c818de000040780084f90700d9
:102398002e0090000040780081f90700f0cab300d1
:1023a8007ff9070000c0eb007df9070000c0eb00d3
:1023b8007bf907004e019000de019000001020001c
:1023c80001002000800f5100818f59000400360061
:1023d80000102000010020004007980051079800d5
:1023e8006000b800008fbe000b00370056fa0700e7
:1023f8008080fb001e007800000140000080200063
:1024080000004100010878001000200001002000b1
:102418001e0f40005e9748004e009000de009000be
:102428001e01be00800f5100818f5900efff390057
:1024380090f807000080fa00000006000c00fa007f
:102448002007980031079800420798005307980022
:102458006000b800008fbe008cf807002e019000c5
:10246800be019000f0ff2f00f10f2000020278005b
:1024780003017800800178000100780003026200ff
:102488000000610001002000c000dd000000200005
:102498000001be006120b800000171008181710057
:1024a8004018de0001002000004078003cf90700d9
:1024b8002e019000be019000f0ff2f0001002000c7
:1024c800020278000301780080017800010078009a
:1024d800030262000000610001002000c000dd006e
:1024e800000020000001be006120b800000171005a
:1024f80081817100481add004810de00000072007a
:10250800c818de000040780025f907002e0090006a
:102518000040780022f9070000c0eb0020f907000e
:1025280000c0eb001ef9070000c0eb001cf9070013
:102538004e019000de0190000010200001002000f4
:10254800800f5100818f59000400360000102000d0
:102558000100200040079800510798006000b8006b
:10256800008fbe000b003700f7f907008080fb00e2
:102578001e0078000001400000802000000041009b
:102588000108780010002000010020001e0f400004
:102598005e9748004e009000de0090001e01be00cd
:1025a800800f5100818f5900efff390031f8070083
:1025b8000080fa00000006000600fa0010079800e4
:1025c800210798000040eb00004f78002ff8070023
:1025d800b0c3b30088f807001e019000ae01900058
:1025e800f0ff2f00f10f20000202780003017800ad
:1025f8008001780001007800030262000000610099
:1026080001002000c000dd00000020000001be0025
:102618006120b80000017100818171004018de005e
:10262800010020000040780073f807001e019000a8
:10263800ae019000f0ff2f00010020000202780098
:10264800030178008001780001007800030262002d
:102658000000610001002000c000dd000000200033
:102668000001be006120b800000171008181710085
:10267800481add004810de0000007200c818de00ad
:10268800004078005cf807001e00900000407800c9
:1026980059f8070000c0eb0057f8070037f90700a2
:1026a800004f7800f3f707001e4078000080fa001a
:1026b800000006000c00fa00200798003107980077
:1026c80042079800530798006000b800008fbe00ca
:1026d800eef70700b0c3b30047f807002e019000db
:1026e800be019000f0ff2f00f10f200002027800d9
:1026f800030178008001780001007800030262007d
:102708000000610001002000c000dd000000200082
:102718000001be006120b8000001710081817100d4
:102728004018de00010020000040780032f8070061
:102738002e019000be019000f0ff2f000100200044
:102748000202780003017800800178000100780017
:10275800030262000000610001002000c000dd00eb
:10276800000020000001be006120b80000017100d7
:1027780081817100481add004810de0000007200f7
:10278800c818de00004078001bf807002e009000f3
:102798000040780018f8070000c0eb0016f80700a2
:1027a8004e019000de019000001020000100200082
:1027b800800f5100818f590004003600001020005e
:1027c8000100200040079800510798006000b800f9
:1027d800008fbe000b003700e8f807008080fb0080
:1027e8001e00780000014000008020000000410029
:1027f8000108780010002000010020001e0f400092
:102808005e9748004e009000de0090001e01be005a
:10281800800f5100818f5900efff390095f70700ad
:102828000080fa00000006000600fa001007980071
:10283800210798000040eb00004f780093f707004d
:10284800b0cbb300ecf707001e019000ae0190007a
:10285800f0ff2f00f10f200002027800030178003a
:102868008001780001007800030262000000610026
:1028780001002000c000dd00000020000001be00b3
:102888006120b80000017100818171004018de00ec
:102898000100200000407800f0f707001e019000ba
:1028a800ae019000f0ff2f00010020000202780026
:1028b80003017800800178000100780003026200bb
:1028c8000000610001002000c000dd0000002000c1
:1028d8000001be006120b800000171008181710013
:1028e800481add004810de0000007200c818de003b
:1028f80000407800d9f707001e00900000407800db
:10290800d6f70700f0cab300d4f707009bf8070012
:10291800004f780057f707001e4078000080fa0043
:10292800000006000600fa0010079800210798002a
:102938000040eb00004f780054f70700b0cbb3001d
:10294800adf707001e019000ae019000f0ff2f00c8
:10295800f10f20000202780003017800800178005e
:1029680001007800030262000000610001002000fd
:10297800c000dd00000020000001be006120b8009a
:1029880000017100818171004018de000100200003
:1029980000407800b1f707001e019000ae019000da
:1029a800f0ff2f00010020000202780003017800e8
:1029b80080017800010078000302620000006100d5
:1029c80001002000c000dd00000020000001be0062
:1029d8006120b8000001710081817100481add0092
:1029e8004810de0000007200c818de0000407800c1
:1029f8009af707001e0090000040780097f707003c
:102a0800f0cab30095f707005cf80700004f78009c
:102a180018f707001e4078000080fa000000060042
:102a28000600fa0010079800210798000040eb0004
:102a3800004f780015f70700b0cbb3006ef707001a
:102a48001e019000ae019000f0ff2f00f10f200052
:102a58000202780003017800800178000100780004
:102a6800030262000000610001002000c000dd00d8
:102a7800000020000001be006120b80000017100c4
:102a8800818171004018de000100200000407800bc
:102a980072f707001e019000ae019000f0ff2f00b2
:102aa800010020000202780003017800800178000c
:102ab80001007800030262000000610001002000ac
:102ac800c000dd00000020000001be006120b80049
:102ad8000001710081817100481add004810de0094
:102ae80000007200c818de00004078005bf707009d
:102af8001e0090000040780058f7070000c0eb0067
:102b080056f707001df80700004f7800d9f60700b0
:102b18001e4078000080fa00000006000c00fa0051
:102b2800200798003107980042079800530798003b
:102b38006000b800008fbe00d4f60700b0cbb30029
:102b48002df707002e019000be019000f0ff2f0026
:102b5800f10f20000202780003017800800178005c
:102b680001007800030262000000610001002000fb
:102b7800c000dd00000020000001be006120b80098
:102b880000017100818171004018de000100200001
:102b98000040780031f707002e019000be01900038
:102ba800f0ff2f00010020000202780003017800e6
:102bb80080017800010078000302620000006100d3
:102bc80001002000c000dd00000020000001be0060
:102bd8006120b8000001710081817100481add0090
:102be8004810de0000007200c818de0000407800bf
:102bf8001af707002e0090000040780017f707002a
:102c0800f0cab30015f707004e019000de019000ee
:102c18000010200001002000800f5100818f590012
:102c28000400360000102000010020004007980032
:102c3800510798006000b800008fbe000b003700f5
:102c4800cef707008080fb001e00780000014000de
:102c580000802000000041000108780010002000da
:102c6800010020001e0f40005e9748004e009000b3
:102c7800de0090001e01be00800f5100818f5900b8
:102c8800efff39007bf607000080fa00000006001d
:102c98000c00fa00200798003107980042079800b6
:102ca800530798006000b800008fbe0077f6070051
:102cb8002e019000be019000f0ff2f00f10f2000c0
:102cc8000202780003017800800178000100780092
:102cd800030262000000610001002000c000dd0066
:102ce800000020000001be006120b8000001710052
:102cf800818171004018de0001002000004078004a
:102d0800d6f607002e019000be019000f0ff2f00bc
:102d18000100200002027800030178008001780099
:102d28000100780003026200000061000100200039
:102d3800c000dd00000020000001be006120b800d6
:102d48000001710081817100481add004810de0021
:102d580000007200c818de0000407800bff60700c7
:102d68002e00900000407800bcf60700f0cab300bf
:102d7800baf607004e019000de0190000010200016
:102d880001002000800f5100818f59000400360097
:102d9800001020000100200040079800510798000b
:102da8006000b800008fbe000b00370073f7070003
:102db8008080fb001e007800000140000080200099
:102dc80000004100010878001000200001002000e8
:102dd8001e0f40005e9748004e009000de009000f5
:102de8001e01be00800f5100818f5900efff39008e
:102df80020f607000080fa00000006000c00fa0028
:102e08002007980031079800420798005307980058
:102e18006000b800008fbe001cf607002e0190006d
:102e2800be019000f0ff2f00f10f20000202780091
:102e38000301780080017800010078000302620035
:102e48000000610001002000c000dd00000020003b
:102e58000001be006120b80000017100818171008d
:102e68004018de0001002000004078007bf60700d3
:102e78002e019000be019000f0ff2f0001002000fd
:102e880002027800030178008001780001007800d0
:102e9800030262000000610001002000c000dd00a4
:102ea800000020000001be006120b8000001710090
:102eb80081817100481add004810de0000007200b0
:102ec800c818de000040780064f607002e00900065
:102ed8000040780061f6070000c0eb005ff60700cd
:102ee8004e019000de01900000102000010020003b
:102ef800800f5100818f5900040036000010200017
:102f08000100200040079800510798006000b800b1
:102f1800008fbe000b00370018f707008080fb0009
:102f28001e007800000140000080200000004100e1
:102f38000108780010002000010020001e0f40004a
:102f48005e9748004e009000de0090001e01be0013
:102f5800800f5100818f5900efff3900c5f5070038
:102f68000080fa00000006000200fa00004f780016
:102f7800c6f5070000ccb30089f607001e407800ac
:102f880087f60700bbf507000080fa00000006007e
:102f98000200fa00004f7800bcf5070000ccb3002f
:102fa80015f607001e40780013f60700b1f5070074
:102fb8000080fa00000006000800fa0010079800d8
:102fc80021079800624798000000eb00000f780086
:102fd800aef50700c0c0b30071f607001e019000ef
:102fe800ae019000f0ff2f00f10f200002027800e0
:102ff8000301780080017800010078000302620074
:103008000000610001002000c000dd000000200079
:103018000001be006120b8000001710081817100cb
:103028004018de0001002000004078005cf6070030
:103038001e019000ae019000f0ff2f00010020005b
:10304800020278000301780080017800010078000e
:10305800030262000000610001002000c000dd00e2
:10306800000020000001be006120b80000017100ce
:1030780081817100481add004810de0000007200ee
:10308800c818de000040780045f607001e009000d2
:103098000040780042f607001e00900000407800cb
:1030a8003ff607001e009000004078003cf607003d
:1030b8001e0090000040780039f607000000eb0081
:1030c800000f7800080037001ff707008080fb001a
:1030d8001e00780000014000008020000000410030
:1030e800010878001e0fe8006e4090000080fb0089
:1030f8000000e9009e0f5000f3ff31005df5070066
:103108000080fa00000006000800fa001007980086
:1031180021079800624798000000eb00000f780034
:103128005af50700c0ceb300b3f507001e019000a2
:10313800ae019000f0ff2f00f10f2000020278008e
:103148000301780080017800010078000302620022
:103158000000610001002000c000dd000000200028
:103168000001be006120b80000017100818171007a
:103178004018de00010020000040780008f6070033
:103188001e019000ae019000f0ff2f00010020000a
:1031980002027800030178008001780001007800bd
:1031a800030262000000610001002000c000dd0091
:1031b800000020000001be006120b800000171007d
:1031c80081817100481add004810de00000072009d
:1031d800c818de0000407800f1f507001e009000d6
:1031e80000407800eef507001e00900000407800cf
:1031f800ebf507001e00900000407800e8f5070096
:103208001e00900000407800e5f507000000eb0084
:10321800000f780008003700cbf607008080fb001d
:103228001e007800000140000080200000004100de
:10323800010878001e0fe8006e4090000080fb0037
:103248009e0f5000f4ff3e000af507000080fa00c8
:10325800000006000600fa001007980021079800f1
:103268000000eb00000f780008f5070020c0b3004d
:10327800cbf507001e019000ae019000f0ff2f0073
:10328800f10f200002027800030178008001780025
:1032980001007800030262000000610001002000c4
:1032a800c000dd00000020000001be006120b80061
:1032b80000017100818171004018de0001002000ca
:1032c80000407800b6f507001e019000ae0190009e
:1032d800f0ff2f00010020000202780003017800af
:1032e800800178000100780003026200000061009c
:1032f80001002000c000dd00000020000001be0029
:103308006120b8000001710081817100481add0058
:103318004810de0000007200c818de000040780087
:103328009ff507001e009000004078009cf50700fc
:103338000000eb00000f7800080037001e0078003e
:1033480080004000008020000080400010007800cd
:103358000040780092f507001e0fe800f00f2000eb
:103368009e007800808f5000f4ff3600c1f40700fb
:103378000080fa00000006000600fa001007980016
:10338800210798000000eb00000f7800bff4070049
:1033980020c0b30018f507001e019000ae01900090
:1033a800f0ff2f00f10f20000202780003017800df
:1033b80080017800010078000302620000006100cb
:1033c80001002000c000dd00000020000001be0058
:1033d8006120b80000017100818171004018de0091
:1033e800010020000040780003f507001e0190004e
:1033f800ae019000f0ff2f000100200002027800cb
:10340800030178008001780001007800030262005f
:103418000000610001002000c000dd000000200065
:103428000001be006120b8000001710081817100b7
:10343800481add004810de0000007200c818de00df
:1034480000407800ecf407001e009000004078006f
:10345800e9f407000000eb00000f780008003700cf
:103468001e0078008000400000802000008040009e
:103478001000780000407800dff407001e0fe80015
:10348800f00f20009e007800808f5000f4ff360077
:1034980078f407000080fa00000006000600fa0031
:1034a80010079800210798000000eb00000f780033
:1034b80076f4070020c3b300cff407001e01900084
:1034c800ae019000f0ff2f00f10f200002027800fb
:1034d800030178008001780001007800030262008f
:1034e8000000610001002000c000dd000000200095
:1034f8000001be006120b8000001710081817100e7
:103508004018de00010020000040780024f5070084
:103518001e019000ae019000f0ff2f000100200076
:103528000202780003017800800178000100780029
:10353800030262000000610001002000c000dd00fd
:10354800000020000001be006120b80000017100e9
:1035580081817100481add004810de000000720009
:10356800c818de00004078000df507001e00900026
:10357800004078000af507000000eb00000f780013
:10358800080037001e0078008000400000802000fe
:1035980000804000100078000040780000f5070027
:1035a8001e0fe800f00f20009e007800808f50006a
:1035b800f4ff36002ff407000080fa000000060030
:1035c8000000fa0031f4070070ccb300f4f40700ef
:1035d80028f407000080fa00000006000000fa0046
:1035e8002af4070070ccb30083f4070021f4070025
:1035f8000080fa00000006000400fa00008fbe00f8
:1036080022f4070000c2b300e5f40700f0ff2f0022
:10361800f10f20001e01be000202780003017800ad
:103628008001780001007800030262000000610058
:1036380001002000c000dd00000020000001be00e5
:103648006120b80000017100818171004018de001e
:103658000100200000407800d1f40700f0ff2f009f
:10366800010020001e01be0002027800030178005c
:103678008001780001007800030262000000610008
:1036880001002000c000dd00000020000001be0095
:103698006120b8000001710081817100481add00c5
:1036a8004810de0000007200c818de0000407800f4
:1036b800bbf407001e00780000407800b8f407004b
:1036c800ecf307000080fa00000006000400fa008e
:1036d800008fbe00edf3070000c2b30046f40700f8
:1036e800f0ff2f00f10f20001e01be00020278003b
:1036f800030178008001780001007800030262006d
:103708000000610001002000c000dd000000200072
:103718000001be006120b8000001710081817100c4
:103728004018de00010020000040780032f4070055
:10373800f0ff2f00010020001e01be0002027800e9
:10374800030178008001780001007800030262001c
:103758000000610001002000c000dd000000200022
:103768000001be006120b800000171008181710074
:10377800481add004810de0000007200c818de009c
:10378800004078001cf407001e0078000040780014
:1037980019f40700b7f307000080fa0000000600dc
:1037a8000400fa00008fbe00b8f3070080cdb30014
:1037b8007bf40700f0ff2f00f10f20001e01be0070
:1037c8000202780003017800800178000100780087
:1037d800030262000000610001002000c000dd005b
:1037e800000020000001be006120b8000001710047
:1037f800818171004018de0001002000004078003f
:1038080067f40700f0ff2f00010020001e01be0032
:103818000202780003017800800178000100780036
:10382800030262000000610001002000c000dd000a
:10383800000020000001be006120b80000017100f6
:1038480081817100481add004810de000000720016
:10385800c818de000040780051f407001e00780008
:10386800004078004ef4070082f307000080fa0059
:10387800000006000400fa00008fbe0083f3070072
:1038880080cdb300dcf30700f0ff2f00f10f20001c
:103898001e01be0002027800030178008001780052
:1038a80001007800030262000000610001002000ae
:1038b800c000dd00000020000001be006120b8004b
:1038c80000017100818171004018de0001002000b4
:1038d80000407800c8f30700f0ff2f000100200027
:1038e8001e01be0002027800030178008001780002
:1038f800010078000302620000006100010020005e
:10390800c000dd00000020000001be006120b800fa
:103918000001710081817100481add004810de0045
:1039280000007200c818de0000407800b2f30700fb
:103938001e00780000407800aff307004df3070041
:103948000080fa00000006000000fa004ff30700ac
:103958000040eb0012f4070046f307000080fa006d
:10396800000006000000fa0048f307000040eb00e2
:10397800a1f307003ff307000080fa0000000600eb
:103988000000fa0041f3070060c6b30004f4070022
:1039980038f307000080fa00000006000000fa0073
:1039a8003af3070060c6b30093f3070031f307004a
:1039b8000080fa00000006000000fa0033f3070058
:1039c80090c9b300f6f307002af307000080fa0055
:1039d800000006000000fa002cf3070090c9b300ad
:1039e80085f3070023f307000080fa0000000600b3
:1039f8000000fa0025f3070080c3b3007ef3070038
:103a08001cf307000080fa00000006000000fa001e
:103a18001ef3070000c0eb00e1f3070015f30700f1
:103a28000080fa00000006000000fa0017f3070003
:103a380000c0eb0070f307000ef307000080fa00e7
:103a4800000006000000fa0010f3070000cbb300e6
:103a5800d3f3070007f307000080fa000000060010
:103a68000000fa0009f3070000cbb30062f3070077
:103a780000f307000080fa00000006000000fa00ca
:103a880002f3070000c3b300c5f30700f9f207000b
:103a98000080fa00000006000000fa00fbf20700b0
:103aa80000c3b30054f30700f2f207000080fa00e5
:103ab800000006000400fa00000f78002147980073
:103ac800f2f2070010c0b300b5f307001e0078003b
:103ad8004800de0000407800b1f307002e40900057
:103ae800e24f500003003a001e00780000407800c2
:103af800abf30700dff207000080fa0000000600c1
:103b08000400fa00000f780021479800dff2070050
:103b180010c0b30038f307001e0078004800de002c
:103b28000040780034f307002e409000e24f500028
:103b380003003a001e007800004078002ef30700ca
:103b4800ccf207000080fa00000006000e00fa0020
:103b580020079800320798004307980054079800f8
:103b6800650798006000b800008fbe005e019000f5
:103b7800ee0190000080200001002000800f51001d
:103b8800818f5900040036000080200001002000c9
:103b98005007980061079800bcf2070080c8b3007e
:103ba8007ff307003e009000ce0090004809dd003a
:103bb8004800de0000007100c808de000040780000
:103bc80077f307003e0090000040780074f3070088
:103bd8003e0090000040780071f307003e0090001e
:103be800004078006ef307003e0090000040780027
:103bf8006bf307006000b800008fbe000a003700b2
:103c080051f40700ae009000804878002e00900024
:103c18000000e800200798001000200001002000a4
:103c28001e0f40005e9748005e009000ee00900076
:103c38001e01be00800f5100818f5900f0ff39002e
:103c48008cf207000080fa00000006000e00fa005f
:103c580020079800320798004307980054079800f7
:103c6800650798006000b800008fbe005e019000f4
:103c7800ee0190000080200001002000800f51001c
:103c8800818f5900040036000080200001002000c8
:103c980050079800610798007cf2070080c8b300bd
:103ca800d5f207003e009000ce0090004809dd00e4
:103cb8004800de0000007100c808de0000407800ff
:103cc800cdf207003e00900000407800caf20700dd
:103cd8003e00900000407800c7f207006000b8007e
:103ce800008fbe000a00370082f30700ae00900084
:103cf800804878002e0090000000e8002007980017
:103d080010002000010020001e0f40005e974800b0
:103d18005e009000ee0090001e01be00800f510072
:103d2800818f5900f0ff390052f207000080fa0035
:103d3800000006000e00fa002007980032079800dd
:103d48004307980054079800650798006000b8007a
:103d5800008fbe005e019000ee0190000010200070
:103d680001002000800f5100818f590004003600a7
:103d780000102000010020005007980061079800fb
:103d880042f2070050cab30005f307003e00900056
:103d9800ce0090004809dd004800de0000007100f8
:103da800c808de0000407800fdf207003e009000e1
:103db80000407800faf207006000b800008fbe00eb
:103dc8000a0037002e00900010407800f4f2070037
:103dd8002e0090000000e800200798001000200046
:103de800010020001e0f40005e9748005e00900012
:103df800ee0090001e01be00800f5100818f590017
:103e0800f0ff39001bf207000080fa0000000600ee
:103e18000e00fa0020079800320798004307980020
:103e280054079800650798006000b800008fbe002e
:103e38005e019000ee0190000010200001002000bb
:103e4800800f5100818f59000400360000102000b7
:103e58000100200050079800610798000bf2070046
:103e680050cab30064f207003e009000ce009000f4
:103e78004809dd004800de0000007100c808de00c7
:103e8800004078005cf207003e0090000040780097
:103e980059f207006000b800008fbe000a00370022
:103ea8002e0090001040780053f207002e0090007a
:103eb8000000e80020079800100020000100200002
:103ec8001e0f40005e9748005e009000ee009000d4
:103ed8001e01be00800f5100818f5900f0ff39008c
:103ee800e4f107000080fa00000006000000fa0074
:103ef800e6f1070050c8b300a9f20700ddf107009a
:103f08000080fa00000006000000fa00dff1070058
:103f180050c8b30038f20700d6f107000080fa0055
:103f2800000006000200fa00881f78000000eb007d
:103f3800000f7800d5f1070020c7b30098f20700fa
:103f480000c0eb0096f2070060002000000f780028
:103f5800080037001e04e9007bf307008080fb009f
:103f68000801440000a0200000004100010878007a
:103f78001e0fe9001e007800e00f5000f5ff3a0020
:103f8800bcf107004f0478000080fa00000006002a
:103f98000200fa00881f78000040eb00004f78000c
:103fa800baf1070020c7b30013f2070060c0b300de
:103fb800004f78000a0037009e4078000180fb001f
:103fc8000004e900cbf207008080fb0008014400f0
:103fd80000a0200000004100010878001e4fe90001
:103fe8001e407800e04f5000f3ff3a00a1f10700af
:103ff8004f0478000080fa00000006000200fa0072
:104008000040eb00004f7800a0f1070020c4b30087
:1040180063f2070060c0b300004f78000a00370061
:104028009e4078000180fb000000e900800040000d
:1040380000a02000008040001000780000407800b8
:1040480057f207001e4fe9001e407800e04f50006d
:10405800f3ff3a0087f107000080fa00000006002d
:104068000200fa000040eb00004f780087f10700db
:1040780020c4b300e0f1070060c0b300004f78002f
:104088000a0037009e4078000180fb000000e9002c
:104098008000400000a02000008040001000780050
:1040a80000407800d4f107001e4fe9001e40780058
:1040b800e04f5000f3ff3a006ef107000080fa006d
:1040c800000006000000fa0070f1070080c9b30084
:1040d800c9f1070067f107000080fa000000060038
:1040e8000000fa0069f1070080c9b3002cf207004c
:1040f80060f107000080fa00000006000000fa00e6
:1041080062f10700d0c8b30025f2070059f1070093
:104118000080fa00000006000000fa005bf10700ca
:10412800d0c8b300b4f1070052f107000080fa00cc
:10413800000006000200fa000040eb00004f780083
:1041480052f1070080ceb30015f2070060c0b3003b
:10415800004f78000a0037009e4078000180fb007d
:104168000000e9008000400000a02000008040001e
:10417800100078000040780009f207001e4fe9009f
:104188001e407800e04f5000f3ff3a0039f1070075
:104198000080fa00000006000200fa000040eb0070
:1041a800004f780039f1070080ceb30092f1070084
:1041b80060c0b300004f78000a0037009e407800c6
:1041c8000180fb000000e9008000400000a0200002
:1041d80000804000100078000040780086f1070059
:1041e8001e4fe9001e407800e04f5000f3ff3a00f0
:1041f80020f107000080fa00000006000200fa0023
:1042080010c8b300004f780002003700def2070044
:10421800004f78009e00fb0010082000808060009e
:1042280010082000808f5000f8ff32009e00fb002d
:10423800100820008080600000082000808f500057
:10424800f2ff32009e00fb00100820000080600092
:10425800e10f5000edff32000080fa000000060078
:104268000000fa0001003700d5f20700d4f2070079
:10427800e04f5000fcff35000080fa000000060007
:104288000600fa0010079800210798000040eb008c
:10429800004f7800fdf00700a0c5b30056f10700f5
:1042a8001e019000ae019000f0ff2f00f10f2000da
:1042b800020278000301780080017800010078008c
:1042c800030262000000610001002000c000dd0060
:1042d800000020000001be006120b800000171004c
:1042e800818171004018de00010020000040780044
:1042f80041f107001e019000ae019000f0ff2f0071
:104308000100200002027800030178008001780093
:104318000100780003026200000061000100200033
:10432800c000dd00000020000001be006120b800d0
:104338000001710081817100481add004810de001b
:1043480000007200c818de00004078002af107005b
:104358001e0090000040780027f1070000c0eb0025
:1043680025f10700e3f10700004f7800c1f00700ce
:104378001e4078000080fa00000006001e08fa00bf
:104388000000eb00500798006000b800008fbe00e6
:104398006000b80060079800710798000040eb00c3
:1043a800004f980010002000300798000000eb0034
:1043b8002007980010002000000f9800f0ff2f0041
:1043c80011002000100f9800210f98006000b8001d
:1043d80000518800115188000040eb006057980098
:1043e8000040eb000feab7004df00700a1f007000e
:1043f800c1f00700b3f00700fbf007006000b80049
:10440800008fbe000600370000c0eb0085f00700f3
:1044180010002000010020001e0f40005e97480099
:10442800f0ff2f00010020001e01be00800f510088
:10443800818f5900f4ff36008ef2070060f2070002
:104448000080fb0001002000400f9800510f9800e9
:104458004e089000de089000c808dd000080fd00ce
:10446800804078000040eb00400f9800510f980002
:104478004e089000de0890000010a000400f980041
:10448800510f98004e08900021c0b3009cfd070012
:1044980057f207000080fb00600f980099f20700b0
:1044a800c1a0200091407800f0cbb30080cf50002d
:1044b80011003a00d1a020009140780060c2b300fa
:1044c80080cf50000c003a00e1a020009140780015
:1044d80010c5b30080cf500007003a003e0090009e
:1044e800e10f500004003a002e0090000000e800a0
:1044f80020079800020037000000eb003007980002
:104508002e0090000040780046f007000040eb00c5
:104518000ceab7000040eb000deab7000040eb00e2
:104528000eeab70032fd07004bf2070066f20700fb
:10453800c1a0200091407800f0cbb30080cf50009c
:1045480014003a00d1a020009140780060c2b30066
:1045580080cf50000f003a00e1a020009140780081
:1045680010c5b30080cf50000a003a003e0090000a
:10457800e10f500007003a002e0090000000e8000c
:10458800200798003e009000610060003007980006
:10459800020037000000eb00300798002e00900062
:1045a800004078001ff007002e00900000407800bf
:1045b8001cf0070015fd07002e009000004f980022
:1045c8003e009000e00f500004003a008e48900032
:1045d80000c8b30000c07000004f98000e4890005b
:0845e80010f00700fdff370091
:020000040000fa
:1045f000000800002402000000000000000000008d
:020000040000fa
:020000040002f8
:04aff800dfff000077
:020000040000fa
:020000040002f8
:04affc007f3f000093
:00000001FF
