:020000040000fa
:080000000002040000000000f2
:020000040000fa
:04000800c80200002a
:020000040000fa
:04000c008810000058
:020000040000fa
:040010009a10000042
:020000040000fa
:040014009010000048
:020000040000fa
:04001800a210000032
:020000040000fa
:04001c00c802000016
:020000040000fa
:04002000c802000012
:020000040000fa
:04002400c80200000e
:020000040000fa
:04002800c80200000a
:020000040000fa
:04002c00c802000006
:020000040000fa
:04003000c802000002
:020000040000fa
:04003400c8020000fe
:020000040000fa
:04003800c8020000fa
:020000040000fa
:04003c00c8020000f6
:020000040000fa
:04004000c8020000f2
:020000040000fa
:04004400c8020000ee
:020000040000fa
:04004800c8020000ea
:020000040000fa
:04004c00c8020000e6
:020000040000fa
:04005000c8020000e2
:020000040000fa
:04005400c8020000de
:020000040000fa
:04005800c8020000da
:020000040000fa
:04005c00c8020000d6
:020000040000fa
:04006000c8020000d2
:020000040000fa
:04006400c8020000ce
:020000040000fa
:04006800c8020000ca
:020000040000fa
:04006c00c8020000c6
:020000040000fa
:04007000c8020000c2
:020000040000fa
:04007400c8020000be
:020000040000fa
:04007800c8020000ba
:020000040000fa
:04007c00c8020000b6
:020000040000fa
:04008000c8020000b2
:020000040000fa
:04008400c8020000ae
:020000040000fa
:04008800c8020000aa
:020000040000fa
:04008c00c8020000a6
:020000040000fa
:04009000c8020000a2
:020000040000fa
:04009400c80200009e
:020000040000fa
:04009800c80200009a
:020000040000fa
:04009c00c802000096
:020000040000fa
:0400a000c802000092
:020000040000fa
:0400a400c80200008e
:020000040000fa
:0400a800c80200008a
:020000040000fa
:0400ac00c802000086
:020000040000fa
:0400b000c802000082
:020000040000fa
:0400b400c80200007e
:020000040000fa
:0400b800c80200007a
:020000040000fa
:0400bc00c802000076
:020000040000fa
:0400c000c802000072
:020000040000fa
:0400c400c80200006e
:020000040000fa
:0400c800c80200006a
:020000040000fa
:0400cc00c802000066
:020000040000fa
:0400d000c802000062
:020000040000fa
:0400d400c80200005e
:020000040000fa
:0400d800c80200005a
:020000040000fa
:0400dc00c802000056
:020000040000fa
:0400e000c802000052
:020000040000fa
:0400e400c80200004e
:020000040000fa
:0400e800c80200004a
:020000040000fa
:0400ec00c802000046
:020000040000fa
:0400f000c802000042
:020000040000fa
:0400f400c80200003e
:020000040000fa
:0400f800c80200003a
:020000040000fa
:0400fc00c802000036
:020000040000fa
:04010000c802000031
:020000040000fa
:04010400c80200002d
:020000040000fa
:04010800c802000029
:020000040000fa
:04010c00c802000025
:020000040000fa
:04011000c802000021
:020000040000fa
:04011400c80200001d
:020000040000fa
:04011800c802000019
:020000040000fa
:04011c00c802000015
:020000040000fa
:04012000c802000011
:020000040000fa
:04012400c80200000d
:020000040000fa
:04012800c802000009
:020000040000fa
:04012c00c802000005
:020000040000fa
:04013000c802000001
:020000040000fa
:04013400c8020000fd
:020000040000fa
:04020800c802000028
:020000040000fa
:04020c00c802000024
:020000040000fa
:04021000c802000020
:020000040000fa
:04021400c80200001c
:020000040000fa
:04021800c802000018
:020000040000fa
:04021c00c802000014
:020000040000fa
:04022000c802000010
:020000040000fa
:04022400c80200000c
:020000040000fa
:04022800c802000008
:020000040000fa
:04022c00c802000004
:020000040000fa
:04023000c802000000
:020000040000fa
:04023400c8020000fc
:020000040000fa
:04023800c8020000f8
:020000040000fa
:04023c00c8020000f4
:020000040000fa
:04024000c8020000f0
:020000040000fa
:04024400c8020000ec
:020000040000fa
:04024800c8020000e8
:020000040000fa
:04024c00c8020000e4
:020000040000fa
:04025000c8020000e0
:020000040000fa
:04025400c8020000dc
:020000040000fa
:04025800c8020000d8
:020000040000fa
:04025c00c8020000d4
:020000040000fa
:04026000c8020000d0
:020000040000fa
:04026400c8020000cc
:020000040000fa
:04026800c8020000c8
:020000040000fa
:04026c00c8020000c4
:020000040000fa
:04027000c8020000c0
:020000040000fa
:04027400c8020000bc
:020000040000fa
:04027800c8020000b8
:020000040000fa
:04027c00c8020000b4
:020000040000fa
:04028000c8020000b0
:020000040000fa
:04028400c8020000ac
:020000040000fa
:04028800c8020000a8
:020000040000fa
:04028c00c8020000a4
:020000040000fa
:04029000c8020000a0
:020000040000fa
:04029400c80200009c
:020000040000fa
:04029800c802000098
:020000040000fa
:04029c00c802000094
:020000040000fa
:0402a000c802000090
:020000040000fa
:0402a400c80200008c
:020000040000fa
:0402a800c802000088
:020000040000fa
:0402ac00c802000084
:020000040000fa
:0402b000c802000080
:020000040000fa
:0402b400c80200007c
:020000040000fa
:0402b800c802000078
:020000040000fa
:0402bc00c802000074
:020000040000fa
:0402c000c802000070
:020000040000fa
:0402c400c80200006c
:020000040000fa
:0402c800c802000068
:020000040000fa
:0402cc00c802000064
:020000040000fa
:0402d000c802000060
:020000040000fa
:0402d400c80200005c
:020000040000fa
:0402d800c802000058
:020000040000fa
:0402dc00c802000054
:020000040000fa
:0402e000c802000050
:020000040000fa
:0402e400c80200004c
:020000040000fa
:0402e800c802000048
:020000040000fa
:0402ec00c802000044
:020000040000fa
:0402f000c802000040
:020000040000fa
:0402f400c80200003c
:020000040000fa
:0402f800c802000038
:020000040000fa
:0402fc00c802000034
:020000040000fa
:04030000c80200002f
:020000040000fa
:04030400c80200002b
:020000040000fa
:04030800c802000027
:020000040000fa
:04030c00c802000023
:020000040000fa
:04031000c80200001f
:020000040000fa
:04031400c80200001b
:020000040000fa
:04031800c802000017
:020000040000fa
:04031c00c802000013
:020000040000fa
:04032000c80200000f
:020000040000fa
:04032400c80200000b
:020000040000fa
:04032800c802000007
:020000040000fa
:04032c00c802000003
:020000040000fa
:04033000c8020000ff
:020000040000fa
:04033400c8020000fb
:020000040000fa
:100400002f8220000e7f22000e01880000000000d5
:10041000000020000000e000020032000001200087
:1004200020028800140007005b0007000000e000c5
:1004300003003a00400d21000100200002003700b7
:100440000000200001002000810f70000100320038
:1004500014000700000020000000e000020032004d
:100460000000020000000000d209020000000000ad
:100470000040da000000fe004440a9000000200017
:100480000000e0000300320000002000a00188000e
:100490004440a800000006008a1f78008b1f7800e7
:1004a0000000060091018800800478000000eb0045
:1004b0001a003700e284440032a0b4009905ba0063
:1004c000e284440032a0b4009906ba00e2844400f9
:1004d00032a0b4000006eb00476fde00fd07b2005b
:1004e000636ce10003003a00ebff07000000eb0043
:1004f0000a003700606ce10004003a00005deb0088
:100500008b05e900fdff3e00040037006168e10053
:10051000010032000086eb000b00070019c7ba008b
:100520001905ba000e04e00003003a000a00e000da
:10053000e0ff3a0000000600fe07b2009e018800be
:100540008a047800f5ff3700395dba008b05e900b1
:100550000c003200295dba008b05e900080032006a
:100560000c00e00003003a00e284440032a0b40032
:10057000f5ff370019ddba008b05e900faff3a00f4
:100580008904e800e184440032a0b40000000600c1
:0c0590000040da000000fe000000050042
:020000040000fa
:10059c000200fa000040eb00004f7800e922a900ad
:1005ac0050c0b3008606070000c0eb0084060700ad
:1005bc00004f7800e922a8001e4078000080fa0065
:1005cc00000006000200fa000040eb00004f78002b
:1005dc00e922a90050c3b3007906070000c0eb0064
:1005ec0077060700004f7800e922a8001e4078002b
:1005fc000080fa00000006000000fa00e922a900c1
:10060c0060c0b3006e060700e922a8000080fa0063
:10061c00000006000000fa00e922a90040c0b30067
:10062c0067060700e922a8000080fa000000060017
:10063c000600fa00000f78001107980022079800b6
:10064c00e922a900f0c9b3005d06070000c0eb0069
:10065c005b0607008080fb001e0078000108780014
:10066c0000c0eb00560607008080fb001e009000c7
:10067c000108780000c0eb00510607008080fb00e9
:10068c002e00900001087800e922a8000080fa00f2
:10069c00000006000600fa001007980021079800d9
:1006ac000040eb00004f7800e922a90030c0b300f5
:1006bc00430607001e019000ae019000f0ff2f00d2
:1006cc00f10f20000202780003017800800178000d
:1006dc000100780003026200000061008000eb0062
:1006ec00c000dd00000020000001be006120b80049
:1006fc0000017100818171004018de0001002000b2
:10070c00004078002e0607001e019000ae019000fc
:10071c00f0ff2f0001002000020278000301780096
:10072c008001780001007800030262000000610083
:10073c008000eb00c000dd00000020000001be00c6
:10074c006120b8000001710081817100481add0040
:10075c004810de0000007200c818de00004078006f
:10076c00170607001e0090000040780014060700d2
:10077c0000c0eb0012060700004f7800e922a80029
:10078c001e4078000080fa00000006000e00fa00ff
:10079c0020079800310798004207980053079800eb
:1007ac00640798006000b800008fbe00e922a90021
:1007bc0030c0b300020607002e019000be0190006d
:1007cc00f0ff2f00f10f20000202780003017800e7
:1007dc0080017800010078000302620000006100d3
:1007ec008000eb00c000dd00000020000001be0016
:1007fc006120b80000017100818171004018de0099
:10080c000100200000407800ed0507002e0190004b
:10081c00be019000f0ff2f000100200002027800c2
:10082c000301780080017800010078000302620067
:10083c00000061008000eb00c000dd000000200023
:10084c000001be006120b8000001710081817100bf
:10085c00481add004810de0000007200c818de00e7
:10086c0000407800d60507002e009000004078006c
:10087c00d30507006000b800008fbe000c003700e5
:10088c0000c0eb00ce0507008080fb006e009000de
:10089c00010878006e0090000080e8006007980066
:1008ac0012002000030020001e0f41005e9749003b
:1008bc004e009000de0090001e01be00800f510023
:1008cc00818f5900eeff3900e922a8000080fa0060
:1008dc00000006000600fa00100798002107980097
:1008ec000040eb00004f7800e922a900b0c0b30033
:1008fc00b30507001e019000ae019000f0ff2f0021
:10090c00f10f2000020278000301780080017800ca
:10091c000100780003026200000061008000eb001f
:10092c00c000dd00000020000001be006120b80006
:10093c0000017100818171004018de00010020006f
:10094c00004078009e0507001e019000ae0190004b
:10095c00f0ff2f0001002000020278000301780054
:10096c008001780001007800030262000000610041
:10097c008000eb00c000dd00000020000001be0084
:10098c006120b8000001710081817100481add00fe
:10099c004810de0000007200c818de00004078002d
:1009ac00870507001e0090000040780084050700b2
:1009bc0000c0eb008205070000c0eb0080050700bb
:1009cc00004f7800e922a8001e4078000080fa0051
:1009dc00000006000e00fa0020079800310798006e
:1009ec004207980053079800640798006000b8000d
:1009fc00008fbe00e922a900b0c0b300700507004b
:100a0c002e019000be019000f0ff2f00f10f20008e
:100a1c000202780003017800800178000100780060
:100a2c0003026200000061008000eb00c000dd00ea
:100a3c00000020000001be006120b8000001710020
:100a4c00818171004018de00010020000040780018
:100a5c005b0507002e019000be019000f0ff2f00f7
:100a6c000100200002027800030178008001780068
:100a7c000100780003026200000061008000eb00be
:100a8c00c000dd00000020000001be006120b800a5
:100a9c000001710081817100481add004810de00f0
:100aac0000007200c818de00004078004405070002
:100abc002e009000004078004105070000c0eb00bc
:100acc003f0507006000b800008fbe000c00370027
:100adc0000c0eb003a0507008080fb006e00900020
:100aec00010878006e0090000080e8006007980014
:100afc0012002000030020001e0f41005e974900e9
:100b0c004e009000de0090001e01be00800f5100d0
:100b1c00818f5900eeff3900e922a8000080fa000d
:100b2c00000006000800fa00100798002107980042
:100b3c00320798000000eb00000f7800e922a900b2
:100b4c0020c0b3001e0507001e019000ae019000ee
:100b5c00f0ff2f00f10f2000020278000301780053
:100b6c00800178000100780003026200000061003f
:100b7c008000eb00c000dd00000020000001be0082
:100b8c006120b80000017100818171004018de0005
:100b9c000100200000407800090507001e019000ac
:100bac00ae019000f0ff2f0001002000020278003f
:100bbc0003017800800178000100780003026200d4
:100bcc00000061008000eb00c000dd000000200090
:100bdc000001be006120b80000017100818171002c
:100bec00481add004810de0000007200c818de0054
:100bfc0000407800f20407001e00900000407800ce
:100c0c00ef0407000000eb00000f7800080037002d
:100c1c003e0090001000780000407800e8040700c7
:100c2c003e0090000080e800300798001e0fe8009e
:100c3c00f00f20009e007800808f5000f4ff3600eb
:100c4c00e922a8000080fa00000006000000fa006b
:100c5c00e922a90070ccb300d9040700e922a8004e
:100c6c000080fa00000006000400fa00008fbe00ad
:100c7c00e922a90000c2b300d1040700f0ff2f0045
:100c8c00f10f20001e01be00020278000301780063
:100c9c00800178000100780003026200000061000e
:100cac008000eb00c000dd00000020000001be0051
:100cbc006120b80000017100818171004018de00d4
:100ccc000100200000407800bd040700f0ff2f0059
:100cdc00010020001e01be00020278000301780012
:100cec0080017800010078000302620000006100be
:100cfc008000eb00c000dd00000020000001be0001
:100d0c006120b8000001710081817100481add007a
:100d1c004810de0000007200c818de0000407800a9
:100d2c00a70407001e00780000407800a404070008
:100d3c00e922a8000080fa00000006000400fa0076
:100d4c00008fbe00e922a90080cdb3009c040700ef
:100d5c00f0ff2f00f10f20001e01be0002027800f0
:100d6c000301780080017800010078000302620022
:100d7c00000061008000eb00c000dd0000002000de
:100d8c000001be006120b80000017100818171007a
:100d9c004018de00010020000040780088040700a5
:100dac00f0ff2f00010020001e01be00020278009f
:100dbc0003017800800178000100780003026200d2
:100dcc00000061008000eb00c000dd00000020008e
:100ddc000001be006120b80000017100818171002a
:100dec00481add004810de0000007200c818de0052
:100dfc0000407800720407001e0078000040780064
:100e0c006f040700e922a8000080fa000000060029
:100e1c000000fa00e922a9000040eb00680407007a
:100e2c00e922a8000080fa00000006000000fa0089
:100e3c00e922a90060c6b30061040700e922a800fa
:100e4c000080fa00000006000000fa00e922a90068
:100e5c0090c9b3005a040700e922a8000080fa00e8
:100e6c00000006000000fa00e922a90000cbb30044
:100e7c0053040700e922a8000080fa0000000600d5
:100e8c000000fa00e922a90000c3b3004c040700db
:100e9c00e922a8000080fa00000006000400fa0015
:100eac00000f780021479800e922a90010c0b30078
:100ebc00430407001e0078004800de000040780064
:100ecc003f0407002e409000e24f500003003a0010
:100edc001e0078000040780039040700e922a800c1
:100eec000080fa00000006000e00fa0020079800af
:100efc00320798004307980054079800650798003c
:100f0c006000b800008fbe005e019000ee01900002
:100f1c000080200001002000800f5100818f5900bb
:100f2c0004003600008020000100200050079800cb
:100f3c0061079800e922a90080c8b30020040700cb
:100f4c003e009000ce0090004809dd004800de0015
:100f5c0000007100c808de0000407800180407008b
:100f6c003e00900000407800150407003e00900001
:100f7c0000407800120407006000b800008fbe002b
:100f8c000b00370000c0eb000d040700ae00900012
:100f9c00804878002e0090000000e80020079800a0
:100fac0012002000030020001e0f41005e97490034
:100fbc005e009000ee0090001e01be00800f5100fc
:100fcc00818f5900efff3900e922a8000080fa0058
:100fdc00000006000e00fa00200798003207980067
:100fec004307980054079800650798006000b80004
:100ffc00008fbe005e019000ee01900000102000fa
:10100c0001002000800f5100818f59000400360030
:10101c000010200001002000500798006107980084
:10102c00e922a90050cab300e50307003e00900076
:10103c00ce0090004809dd004800de000000710081
:10104c00c808de0000407800dd0307003e00900079
:10105c0000407800da0307006000b800008fbe0083
:10106c000a0037002e00900010407800d4030700cf
:10107c002e0090000000e8002007980012002000cd
:10108c00030020001e0f41005e9749005e00900097
:10109c00ee0090001e01be00800f5100818f5900a0
:1010ac00f0ff3900e922a8000080fa0000000600d9
:1010bc000000fa00e922a90050c8b300c0030700e1
:1010cc00e922a8000080fa00000006000400fa00e3
:1010dc00100798000040eb00004f7800e922a900af
:1010ec0020c7b300b603070060c0b300004f780000
:1010fc000900370000c0eb00b10307008080fb0043
:10110c001e009000010878001e0090000080e8008e
:10111c00100798001e4fe9001e4078000004e00004
:10112c00f4ff3a00e922a8000080fa000000060053
:10113c000400fa00100798000040eb00004f780004
:10114c00e922a90020c4b3009d03070060c0b300ce
:10115c00004f7800080037001e0090001000780047
:10116c0000407800960307001e0090000080e80005
:10117c00100798001e4fe9001e4078000004e000a4
:10118c00f5ff3a00e922a8000080fa0000000600f2
:10119c000000fa00e922a90080c9b3008803070007
:1011ac00e922a8000080fa00000006000000fa0006
:1011bc00e922a900d0c8b30081030700e922a800e6
:1011cc000080fa00000006000400fa0010079800e6
:1011dc000040eb00004f7800e922a90080ceb3005c
:1011ec007703070060c0b300004f78000800370099
:1011fc001e0090001000780000407800700307007b
:10120c001e0090000080e800100798001e4fe900b7
:10121c001e4078000004e000f5ff3a00e922a80027
:10122c000080fa00000006000000fa000100370000
:10123c00d7fc0700d6fc07000004e000fcff3500db
:10124c000080fa00000006000600fa001007980063
:10125c00210798000040eb00004f7800e922a9001c
:10126c00a0c5b300560307001e019000ae0190000c
:10127c00f0ff2f00f10f200002027800030178002c
:10128c008001780001007800030262000000610018
:10129c008000eb00c000dd00000020000001be005b
:1012ac006120b80000017100818171004018de00de
:1012bc000100200000407800410307001e0190004f
:1012cc00ae019000f0ff2f00010020000202780018
:1012dc0003017800800178000100780003026200ad
:1012ec00000061008000eb00c000dd000000200069
:1012fc000001be006120b800000171008181710005
:10130c00481add004810de0000007200c818de002c
:10131c00004078002a0307001e009000004078006f
:10132c002703070000c0eb002503070000c0eb00fb
:10133c0023030700004f7800e922a8001e40780024
:10134c000080fa00000006000000fa00e922a90063
:10135c0090cbb3001a030700e922a8000080fa0022
:10136c00000006000000fa00e922a900b0cab30090
:10137c001303070000c0eb001103070000c0eb00d3
:10138c000f03070000c0eb000d030700e922a800c3
:10139c000080fa00000006002e0afa000000eb00a4
:1013ac00100f98006000b800008fbe006000b800fd
:1013bc0020079800310798000040eb004057980038
:1013cc0010002000000f98000000eb006007980050
:1013dc001000200070079800f0ff2f001100200073
:1013ec00300f9800410f98000040eb00205f9800f0
:1013fc0080a22000000047008000eb00010878006c
:10140c00a0a22000000047008000eb00010878003b
:10141c00c0a22000000047008000eb00010878000b
:10142c0049030700d602a800e9c2a800a0a2200028
:10143c0000014700c0a220008000470080a22000cd
:10144c00000047007afc070080a220000000470043
:10145c0090007800f00b2000808f500013003a00b1
:10146c00c0a220000000470090007800600220001d
:10147c00808f50000d003a00a0a220000000470011
:10148c009000780010052000808f500007003a0073
:10149c000e089000e10f500004003a006e0090001e
:1014ac000000e80060079800040037000000eb0023
:1014bc00600798000000eb00000f98006e00900091
:1014cc00201688006000b800008fbe000b003700ab
:1014dc00c0812000800047001e0078000000400002
:1014ec0000804000a10a20000108780012002000b2
:1014fc00030020001e0f41005e974900f00f2000f2
:10150c00010020001e01be00800f5100818f590088
:10151c00efff360038fc0700c0a120000000470098
:10152c008000eb0001087800c0a1200000004700fb
:10153c008000eb0011009800c0a1200000004700c3
:10154c008000eb0021009800c0a1200000004700a3
:10155c008000eb0031009800c0a120000000470083
:10156c008000eb0041009800c0a120000000470063
:10157c008000eb0051009800c0a120000000470043
:10158c00ebfe070028ff07001bfc0700affd070060
:10159c0025ff07006000b800008fbe0016fc070096
:1015ac000b00370014fc0700c0812000000047002e
:1015bc00000178001e00be005afd07001aff07004c
:1015cc0002102000030020001e0f41005e9749000e
:1015dc003e089000ce0890001e01be00800f510006
:1015ec00818f5900efff390003fc07006000b80041
:1015fc00200798003107980029003700c08120008f
:10160c0000004700000278000204200003002000c4
:10161c002e009000be009000eefc07006000b800a9
:10162c00008fbe0012003700c081200080004700f0
:10163c001e00780000004000e1007800a00a2000a5
:10164c00808f500004003a007e0090006100600022
:10165c0070079800020037000000eb00700798003c
:10166c0012002000030020001e0f41005e9749006d
:10167c00f0032000010020001e01be00800f51006d
:10168c00818f5900e8ff36002e009000be009000bc
:10169c000004b0000180b0002007980031079800ca
:1016ac002e019000be0190003e089000ce089000e4
:1016bc00800f5100818f5900d0ff39007e009000bf
:1016cc00e10f50000a003a000e089000e10f5000a4
:1016dc0007003a006e0090000000e80060079800d8
:1016ec000e08900061006000000f980002003700a7
:1016fc000000eb00000f98006e0090002016880090
:10170c00bdfb07006000b80057fd0700c6fe0700d0
:10171c006000b80020079800310798002e003700b1
:10172c00b5fb0700c08120000000470000027800d4
:10173c0002042000030020002e009000be00900048
:10174c00a4fc07006000b8004007980051079800ff
:10175c0014003700c0812000800047004e0090002c
:10176c0000004000e1007800f00f2000808f500056
:10177c0004003a007e009000610060007007980041
:10178c00020037000000eb00700798004e0090003c
:10179c00de00900061004000e080480040079800a7
:1017ac00510798004e019000de019000e0032000ec
:1017bc0001002000800f5100818f5900e5ff360099
:1017cc002e009000be0090000004b0000180b0001c
:1017dc0020079800310798002e019000be01900060
:1017ec00f0ff200001002000800f5100818f590074
:1017fc00cbff3600000021000100200020079800dc
:10180c00310798002e0037007bfb0700c0812000b9
:10181c0000004700000278000204200003002000b2
:10182c002e009000be0090006afc07006000b8001b
:10183c00400798005107980014003700c081200021
:10184c00800047004e00900000004000e10078004e
:10185c00a00a2000808f500004003a007e00900007
:10186c006100600070079800020037000000eb0078
:10187c00700798004e009000de0090006100400060
:10188c00e080480040079800510798004e019000f6
:10189c00de019000e003200001002000800f5100c9
:1018ac00818f5900e5ff36002e009000be0090009d
:1018bc000004b0000180b0002007980031079800a8
:1018cc002e019000be019000f0ff210001002000cd
:1018dc00800f5100818f5900cbff36007e009000a5
:1018ec00e10f50000a003a000e089000e10f500082
:1018fc0007003a006e0090000000e80060079800b6
:10190c000e08900061006000000f98000200370084
:10191c000000eb00000f98006e009000201688006d
:10192c0035fb07006000b80004fd07003efe070011
:10193c006000b80020079800310798002e0037008f
:10194c002dfb0700c081200000004700000278003a
:10195c0002042000030020002e009000be00900026
:10196c001cfc07006000b800400798005107980065
:10197c0014003700c0812000800047004e0090000a
:10198c0000004000e1007800f00f2000808f500034
:10199c0004003a007e00900061006000700798001f
:1019ac00020037000000eb00700798004e0090001a
:1019bc00de00900061004000e08048004007980085
:1019cc00510798004e019000de019000e0032000ca
:1019dc0001002000800f5100818f5900e5ff360077
:1019ec002e009000be0090000004b0000180b000fa
:1019fc0020079800310798002e019000be0190003e
:101a0c00f0ff210001002000800f5100818f590050
:101a1c00cbff3600000022000100200020079800b8
:101a2c00310798002e003700f3fa0700c081200020
:101a3c000000470000027800020420000300200090
:101a4c002e009000be009000e2fb07006000b80082
:101a5c00400798005107980014003700c0812000ff
:101a6c00800047004e00900000004000e10078002c
:101a7c00a00a2000808f500004003a007e009000e5
:101a8c006100600070079800020037000000eb0056
:101a9c00700798004e009000de009000610040003e
:101aac00e080480040079800510798004e019000d4
:101abc00de019000e003200001002000800f5100a7
:101acc00818f5900e5ff36002e009000be0090007b
:101adc000004b0000180b000200798003107980086
:101aec002e019000be019000f0ff220001002000aa
:101afc00800f5100818f5900cbff36007e00900083
:101b0c00e10f50000a003a000e089000e10f50005f
:101b1c0007003a006e0090000000e8006007980093
:101b2c000e08900061006000000f98000200370062
:101b3c000000eb00000f98006e009000201688004b
:101b4c00adfa070041fc0700b7fd07006000b800c4
:101b5c0020079800310798002e003700a6fa0700de
:101b6c00c081200000004700000278000204200021
:101b7c00030020002e009000be00900095fb070093
:101b8c006000b80040079800510798001400370017
:101b9c00c0812000800047004e00900000004000f3
:101bac00e1007800f00f2000808f500004003a0014
:101bbc007e00900061006000700798000200370002
:101bcc000000eb00700798004e009000de009000c3
:101bdc0061004000e08048004007980051079800e1
:101bec004e019000de019000e00320000100200077
:101bfc00800f5100818f5900e5ff36002e009000b8
:101c0c00be0090000004b0000180b00020079800d6
:101c1c00310798002e019000be0190003e08900004
:101c2c00ce089000800f5100818f5900cbff3900f6
:101c3c007e009000e10f50000a003a000e08900060
:101c4c00e10f500007003a006e0090006300400066
:101c5c00600798000e08900061006000000f98006b
:101c6c00020037000000eb00000f98006e0090009f
:101c7c00201688000e0890000000e00003003a00d7
:101c8c006e0090000070a000600798006e0090003d
:101c9c0020168800fdff37000000fa00f007200036
:101cac00101388001000200020138800c0002800aa
:101cbc00001388000080fa00000006000400fa00ff
:101ccc00000f78001107980000000000001380003e
:101cdc00620060000000e000fcff3a00111380007d
:101cec0000402000008060000000e00002003a008c
:101cfc000000eb000100370010002000e10f500045
:101d0c0004003a001e007800100078004013880090
:101d1c00050037001e007800104078000080fb00a2
:101d2c004013880000000000011380000002200016
:101d3c00008060000000e000fbff3a0011138000ff
:101d4c0000402000008060000000e00002003a002b
:101d5c000000eb000100370010002000e10f5000e4
:101d6c0004003a001e009000411380000108780026
:101d7c000400370040138000804078001e00900063
:101d8c00014878000080fa00000006001a00fa00f2
:101d9c00200f9800310f9800420f98000000eb00c4
:101dac00000f78000000eb00100798000000eb001b
:101dbc00000f98000000eb00100f9800111380002a
:101dcc0000402000008060000000e00002003a00ab
:101ddc000000eb0001003700100020007007980095
:101dec007e009000e10f500006003a002000200019
:101dfc00400798003e0890000000d100300f98007a
:101e0c000200370010002000400798002e089000b8
:101e1c000000e00005003a000000eb0060079800ad
:101e2c00720047002007980004003700ce00900095
:101e3c0061079800ae089000210798004e089000aa
:101e4c000000e00005003a000000eb00500798008d
:101e5c00700047003007980005003700ce00900056
:101e6c0051079800ce089000310798000000000040
:101e7c0000138000620060000000e000fcff3a00ec
:101e8c002d0037001e009000e70f500013003e009d
:101e9c007e009000e10f500004003a002e009000ec
:101eac001000780040138800040037002e009000ca
:101ebc00104078000080fb0040138800ae009000ba
:101ecc006e00900000804000200798001e0fe80074
:101edc001e0090000000e80010079800011380001d
:101eec0000022000008060000000e00012003a00b8
:101efc007e009000e10f500004003a003e0090007c
:101f0c004113800001087800040037004013800062
:101f1c00804078003e00900001487800be009000a0
:101f2c005e00900000804000300798001e0090007a
:101f3c000000e900100798003e0890009e00780011
:101f4c00808f5000cfff390017003700011380003d
:101f5c0000022000008060000000e00012003a0047
:101f6c007e009000e10f500004003a003e0090000b
:101f7c0041138000010878000400370040138000f2
:101f8c00804078003e00900001487800be00900030
:101f9c005e00900000804000300798001e0090000a
:101fac000000e900100798001e0090000000e000ff
:101fbc00e6ff3a001e0078000080fa0000000600e0
:101fcc000400fa00204798000e80e8008e0078008c
:101fdc003aff07001e4078000080fa00000006005f
:101fec000600fa00000f78001107980022079800ed
:101ffc002e0190009e0090001e00780063ff0700e9
:10200c000080fa00000006000000fa0011138000a6
:10201c0000402000008060000000e00002003a0058
:10202c000000eb0001003700100020000080fa00d7
:10203c00000006000000fa00001380000080fa0087
:10204c00000006000000fa00c422ef00ca22ef00d4
:10205c00d022ef0010002000b0168800dc22ef0028
:10206c00e222ef00002024004017880000602c00c2
:10207c00001688000080eb0030168800e0012f006d
:10208c0060168800e0ff2f0090168800f03f2000bb
:10209c00c0168800f01f2300f0168800f0082b00f3
:1020ac00201788006820ef006a20ef00c026ef00a0
:1020bc00c626ef00cc26ef00d226ef00d826ef0084
:1020cc00de26ef00e426ef00000c200060198800eb
:1020dc000080fa0000000600000f78009e007800d7
:1020ec0001408800ffff37000000fa00208020002c
:1020fc0080077800a0812000000188000080fa0091
:10210c00000006003600f8008020a9000000eb005b
:10211c00f1ff07003600f800f3ff07008040a9002c
:10212c0010002000ecff07003600f8008060a900ca
:10213c0020002000e8ff07003600f8008080a9008e
:10214c0030002000e4ff07000000fa00bdff07008c
:10215c001a00070003000700cffe07000080fa00fa
:10216c00000006000000fa000001eb0060042000f3
:10217c007105200023742000804978008149780083
:10218c008249780000102300203a88004827ef008d
:0c219c004027ef000080fa000000060061
:020000040000fa
:1021a80002080000200000000000000000080000f5
:1021b8000200000002000000ffff00000000000015
:020000040000fa
:0c21c8000000fa000080fa000000060091
:020000040000fa
:020000040002f8
:04aff800bfff000097
:020000040000fa
:020000040002f8
:04affc007f3f000093
:00000001FF
